:020000040800F2
:10000000680C0020C1010008652D00089D23000830
:10001000D12A00082D0A0008E1360008000000007F
:10002000000000000000000000000000892D000812
:10003000E10A000800000000872D0008E92D0008F3
:10004000DB010008DB010008DB010008DB01000820
:10005000DB010008DB010008DB010008DB01000810
:10006000DB010008DB010008DB010008DB01000800
:10007000DB010008DB010008DB010008DB010008F0
:10008000DB010008DB0100088D020008DB0100082D
:10009000DB010008DB010008DB010008DB010008D0
:1000A000DB010008DB010008DB010008DB010008C0
:1000B000DB010008DB010008DB010008DB010008B0
:1000C000DB010008DB010008DB010008DB010008A0
:1000D000DB0100086535000891350008BD350008D2
:1000E000DB010008DB010008DB010008DB01000880
:1000F000DB010008DB010008DB010008DB01000870
:10010000DB010008DB010008DB010008DB0100085F
:10011000DB010008DB010008DB010008DB0100084F
:10012000310A0008DB010008DB010008DB010008E0
:10013000DB010008DB010008DB010008DB0100082F
:10014000DB010008DB010008DB010008DB0100081F
:10015000DB010008DB010008DB010008DB0100080F
:10016000DB010008DB010008DB010008DB010008FF
:10017000DB010008DB010008DB01000800000000D3
:10018000DB010008DB010008DB010008DB010008DF
:10019000DB010008DB010008DB010008DB010008CF
:1001A000DB010008DB010008DB010008DFF80CD0F0
:1001B00000F018F800480047F9370008680C0020E4
:1001C0000648804706480047FEE7FEE7FEE7FEE7F1
:1001D000FEE7FEE7FEE7FEE7FEE7FEE7A12E0008EA
:1001E000AD010008064C074D06E0E06840F0010351
:1001F00094E8070098471034AC42F6D3FFF7DAFFD3
:10020000D0390008F039000810B50146806B026C47
:1002100012F0500F05D0806BC26CBDE8104008464C
:100220001047016C41F40071016401688A6812F0A2
:10023000405F17D18269AAB9CA6A12F4700F02D05E
:100240008A6852050ED44A6822F020024A60016C86
:1002500021F480710164016CC90403D4016C41F084
:100260000101016400F0CCFD10BD10B5806B402190
:100270000164416C41F00401416400F0C3FD10BD14
:1002800010B5806B00F0BDFD10BD0000014800F00E
:10029000BABD0000F80400204A4910B5D1F8042383
:1002A00022F44032C1F80423D1F8042343681A43EE
:1002B000C1F8042301684A6822F480724A60016828
:1002C0004A68036942EA03224A6001684A6822F0E8
:1002D00040724A6001684A6883681A434A6001684C
:1002E0008A6822F400628A6001688A68C3681A43D7
:1002F0008A60816A6FF07062D14201688A6822F078
:1003000070628A6001688A680CD0836A1A438A60C6
:1003100001688A6822F040528A6001688A68C36A6C
:100320001A4301E022F040528A6001688A6822F094
:1003300002028A6001688A68836942EA43028A602D
:10034000016A002901684A6815D042F400624A60D7
:1003500001684A6822F460424A6001684B684FF4C1
:100360006044426A94FAA4F4B4FA84F4521EA2409F
:1003700013434B6002E022F400624A600168CA6ADB
:1003800022F47002CA620168CA6A838B0E4C04EBC5
:1003900003531A43CA6201688A6822F400728A60B1
:1003A00001688A68036B42EA43228A6001688A68AE
:1003B00022F480628A6001688A68406942EA80208B
:1003C000886010BD002001400000F0FF70B51446A9
:1003D0000D46064608E03046711C8EB200F007F864
:1003E000641E05F8010BA4B2002CF4D170BD10B549
:1003F000044602F0C1F8200AA02101EB4000C0B27F
:1004000002F08AF802F0FAF8E0B202F085F802F0A1
:10041000F5F802F0B1F8A12002F07EF802F0EEF853
:10042000002002F045F8044602F0C6F8204610BD50
:100430002DE9F05FDFF8B8A24FF48041504601F09B
:10044000D9F8DFF8B092AC4CAC4DAD4EAD4F4FF497
:10045000004B4FF0000888B15946504601F0CAF8E9
:1004600060B1C246C846C9F800A0DFF89C920121DD
:10047000484601F0BFF8012825D099E0D9F80000DE
:10048000401CC9F80000B0F5FA6F7CDD4FF48041E4
:10049000504601F0AFF828B15946504601F0AAF88D
:1004A000002870D1A4F80080A5F800803168C1F858
:1004B00034803968C1F834805046BDE8F05F0122CD
:1004C000510301F09CB80221484601F093F801283D
:1004D0006ED10821484601F08DF8012868D110211D
:1004E000484601F087F8012862D18103484601F0AF
:1004F00081F801285CD1D8F804004FF6E85B401C75
:10050000C8F80400584553DD0121484601F072F84F
:1005100001284DD10221484601F06CF8012847D14D
:100520000821484601F066F870BB1021484601F0EA
:1005300061F801283CD18103484601F05BF80128AD
:1005400036D1D8F80800401CC8F8080058452FDDFF
:100550000121C846484601F04DF8012828D1022162
:10056000404601F047F8012822D10821404601F019
:1005700041F848B91021404601F03CF8012817D154
:100580008103404601E045E012E001F033F8012824
:100590000ED1A4F800A0A5F800A03168C1F834A0DD
:1005A0003968C1F834A041030122514801F027F80D
:1005B0000121484601F01EF84FF01408012816D119
:1005C0000221484601F016F8012810D108214846BA
:1005D00001F010F858B91021484601F00BF8012835
:1005E00005D18103484601F005F8012808D0012112
:1005F000484600F0FFFF4FF01E0A01280CD01CE017
:10060000A4F80080A5F800803168C1F8348039680A
:10061000C1F83480BDE8F09F0221484600F0EAFFAF
:1006200058B91021484600F0E5FF012805D18103A3
:10063000484600F0DFFF012854D00121484600F071
:10064000D9FF012811D10221484600F0D3FF01282B
:100650000BD11021484600F0CDFF30B94FF4804156
:10066000484600F0C7FF012837D00121484600F076
:10067000C1FF4FF0280A30B117E02980326850637B
:1006800038684163C6E70221484600F0B3FF0128FD
:100690000BD11021484600F0ADFF012805D18103A0
:1006A000484600F0A7FF01281CD00121484600F071
:1006B000A1FF0128AED10221484600F09BFF01288E
:1006C000A8D11021484600F095FF0128A2D181034E
:1006D000484600F08FFF00289CD14046A4F80080D7
:1006E0005146CAE75046A4F800A04146C5E70000BD
:1006F00000000240140000208C0000208E0000202A
:1007000080040020BC0400200004024010B54FF417
:100710007A74234603220649064801F0E1FD234688
:10072000BDE8104004220449024801F0D9BD000090
:100730006800002000040020340200202DE9F05F52
:10074000DFF8C8A24FF4804B5946504600F052FFE4
:10075000DFF8BC82AF4CB04DB04EB14F4FF0000946
:1007600080B14FF40041504600F044FF50B1DFF833
:10077000B4A201215046C8F80C9000F03BFF0128BC
:1007800025D09AE0D8F80C00401CC8F80C00B0F551
:10079000FA6F7DDD5946504600F02CFF30B14FF422
:1007A0000041504600F026FF002871D1A4F80090C7
:1007B000A5F800903168C1F834903968C1F83490D8
:1007C0005046BDE8F05F0122510300F018BF02213E
:1007D000504600F00FFF01286FD10821504600F06D
:1007E00009FF012869D11021504600F003FF0128BC
:1007F00063D18103D346504600F0FCFE01285CD152
:10080000D8F810004FF6E85A401CC8F810005045C0
:1008100053DD0121584600F0EDFE01284DD10221A3
:10082000584600F0E7FE012847D10821584600F05D
:10083000E1FE70BB1021584600F0DCFE01283CD1DF
:100840008103584600F0D6FE012836D1D8F81400AE
:10085000401CC8F8140050452FDD0121D8465846E9
:1008600000F0C8FE012828D10221404600F0C2FE57
:10087000012822D10821404600F0BCFE48B91021D1
:10088000404600F0B7FE012817D18103404601E041
:1008900048E012E000F0AEFE01280ED1A4F800906E
:1008A000A5F800903168C1F834903968C1F83490E7
:1008B00041030122554800F0A2FEDFF86C910421AB
:1008C000484600F097FE4FF01408012816D1082181
:1008D000484600F08FFE012810D11021484600F054
:1008E00089FE58B92021484600F084FE012805D130
:1008F0004021484600F07EFE012809D00421CA4666
:10090000484600F077FE4FF01E0901280CD01CE08D
:10091000A4F80080A5F800803168C1F834803968F7
:10092000C1F83480BDE8F09F0821504600F062FE17
:1009300058B92021504600F05DFE012805D1402124
:10094000504600F057FE012806D00421504600F022
:1009500051FE012802D012E0484653E008215046DB
:1009600000F048FE01280AD12021504600F042FE46
:1009700028B94021504600F03DFE012808D004214E
:10098000D146504600F036FE4FF0280A50B11BE029
:100990004046A4F800804946298032685063386890
:1009A0004163BFE70821484600F024FE01280BD12F
:1009B0002021484600F01EFE012805D1402148466E
:1009C00000F018FE01281CD00421484600F012FE59
:1009D0000128A7D10821484600F00CFE0128A1D12A
:1009E0002021484600F006FE01289BD140214846C0
:1009F00000F000FE002895D14046A4F80080514642
:100A0000CAE7504620804146C6E700000000024089
:100A1000140000208C0000208E00002080040020A4
:100A2000BC0400200004024000100240FEE7000069
:100A3000014800F081BB0000400500200168182338
:100A4000CAB2103AB2FBF3F2054B6FF30901032A65
:100A50009B5CC36500D9091D81650846704700008D
:100A6000B839000810B5014600208B698A6A4FF03A
:100A7000C07453B1B3F5005F15D072B1012A0CD028
:100A8000022A0AD0032A09D104E01AB1012A06D0A9
:100A9000022A03D1C96AC90100D5012010BDC96A63
:100AA000A142FAD010BD002AF7D0012AF2D0022AC2
:100AB000F3D0032AF3D010BD30B50468256825F4BF
:100AC00080252560046863608368402B036803D039
:100AD00099600068C26030BD9A600068C16030BD36
:100AE000704770B50C4601464FF0784001F0B0FDFC
:100AF000032002F059FE4FF07A4506E0284601F047
:100B0000A7FD0320641C02F04FFE21780029F5D1D7
:100B100070BD0000032202490020FFF757BC00000F
:100B20006B000020FEE700002DE9F041204C00257D
:100B30004FF47A782078012806D1434604221D49D3
:100B40001D4801F0CDFB25701C4E308801282BD1AB
:100B50001B4801274178032904D0152915D0032902
:100B600005D01AE08178102905D0122907D08178A4
:100B700020290FD011E0C078012814D00DE0C078F2
:100B800058B943460B220F490AE0FFF7BFFD00F0BA
:100B90001DF80BE0C078802808D00B49434604229A
:100BA000054801F09DFB3580BDE8F0812770FAE72C
:100BB0008100002079000020400400204C0000202B
:100BC000300200206E0000207D0000202DE9F0475B
:100BD000324800222F490768324808242E4D91469A
:100BE0004FF0010A2E4B06884FE000BF57F8220055
:100BF00091F80480D0F800C0C44545D191F8058033
:100C0000D0F804C0C4453FD191F80680D0F808C0A0
:100C1000C44539D191F80780D0F80CC0C44533D110
:100C2000D0F810C0BCF1700F06D0BCF16E0F18D018
:100C3000BCF1700F0BD027E0D0F814C0BCF16C0FE2
:100C400009D0BCF1720F08D0BCF1660F07D0406923
:100C5000732817D018E02C700EE02C700FE02C7069
:100C600012E04069662804D06C2805D0722806D0AE
:100C70000AE02C70032006E083F8009004E083F87B
:100C800000A001E004201870521CB242AEDDBDE8A5
:100C9000F08700003002002038000020840000208F
:100CA00082000020500000207047000078B500242A
:100CB000009490F83C20012A19D0012280F83C20B1
:100CC0000A6807230568092A13D9EE680A3A02EB75
:100CD000420293409E43EE600B788A680A3B03EB26
:100CE00043039A400368DD682A43DA6010E002207B
:100CF00078BD2E6902EB420293409E432E610A7832
:100D00008B6802EB42029340026815692B43136122
:100D10004A681F23072A13D205686E6B521E02EB26
:100D2000820293409E436E630A8893B20A79521EF0
:100D300002EB820293400268556B2B43536327E01A
:100D400005680D2A12D22E6BD21F02EB820293404D
:100D50009E432E630B790A88DB1F92B203EB830359
:100D60009A4003681D6B2A431A6311E0EE6A0D3A3C
:100D700002EB820293409E43EE620B790A880D3BA0
:100D800092B203EB83039A400368DD6A2A43DA6276
:100D9000174A0368934208D10B68122B05D1D2F889
:100DA000043343F48003C2F80433036893421BD135
:100DB000104B0D689D4201D0112D15D1D2F804536E
:100DC00045F40005C2F80453096899420CD10A4958
:100DD0000A4A0968B1FBF2F101EB8101490000E028
:100DE000491E00910029FBD180F83C40002078BDCD
:100DF00000200140120000100000002040420F00BF
:100E000070477047704770B50446006801684268D3
:100E1000C1F34001C2F3401251B34AB3216CC90679
:100E200003D4216C41F400712164816811F0405FAA
:100E300017D1A169A9B9C16A11F4700F02D08168F4
:100E400049050ED4416821F020014160206C20F456
:100E500080702064206CC00403D4206C40F001003A
:100E600020642046FFF7CCFF21686FF01200086075
:100E7000206801684268C1F38001C2F3C01289B3DF
:100E800082B3216CC90603D4216C41F40051216462
:100E9000816811F4401F1ED1816B11F4401F02D0F4
:100EA0008168490517D44168490514D4816811F057
:100EB000405F10D1A16971B9416821F080014160A2
:100EC000206C20F480502064206CC00503D4206C7A
:100ED00040F0010020642046FFF7E6FE21686FF035
:100EE0000C00086020680168426811F0010FC2F32D
:100EF00080120ED06AB10068C0070AD0206C40F49E
:100F000080302064204600F046F821686FF0010030
:100F10000860206801684268C1F34011C2F3806232
:100F200000290DD0002A0BD0616C41F002016164F0
:100F30006FF0200505602046FFF764FF206805601C
:100F400070BD70B504004FF0000503D0206C002682
:100F500010B107E0012070BD666484F83C60204653
:100F600000F01AF8206CC00610D4206C20F48850D1
:100F700040F0020020642046FFF78EF96664206C82
:100F800020F0020040F00100206400E0012584F818
:100F90003C60284670BD704770B506460068194928
:100FA00086B088422BD118480025016841F4807131
:100FB00001600068694600F480700590012000908F
:100FC0000320CDE90105114800F02EFA114C10481C
:100FD000C4E900050015A560C4E903504000606144
:100FE0008000A0614011E0614002C4E9080520468C
:100FF00000F076F908B1FFF795FDB463A66306B07B
:1010000070BD00000020014044380240000802404A
:101010001064024040050020F8B50D46002104464A
:10102000009190F83C00012807D0012084F83C0092
:1010300020688368DB0702D011E00220F8BD8368D6
:1010400043F0010383602D482D4B0068B0FBF3F0A3
:1010500000EB400000E0401E00900028FBD120681B
:101060008368DB0748D0236C40F20166B34343F446
:10107000807323644068400505D5206C20F400503F
:1010800040F480502064206CC00404D5606C20F0D3
:101090000600606400E0616484F83C10A16B1948AC
:1010A000C863A16B18480864A16B1848C86421681C
:1010B0006FF0220008602068416841F08061416063
:1010C0002068816841F480718160216813462A4656
:1010D0004C31A06B00F06CF90D49D1F80403C00647
:1010E000206801D0884207D1816811F0405F03D1A8
:1010F000816841F0804181600020F8BD000000203F
:1011000040420F0009020008810200086B0200083B
:101110000020014090F83510022903D0802141655C
:1011200001207047052180F835100068016821F022
:1011300001010160002070472DE9F84304464FF09B
:101140000008CDF8008064484FF41651A56D006882
:10115000B0FBF1F72E6894F85C10082000FA01F15A
:1011600031420FD021680A6852070BD50A6822F075
:1011700004020A6094F85C108840A860606D40F03A
:101180000100606594F85C1054488840304208D0F3
:1011900021684969090604D5A860606D40F0020025
:1011A00060654E4894F85C10C01C8840304208D0FE
:1011B00021680968890704D5A860606D40F00400C3
:1011C000606594F85C1010208840304218D0216887
:1011D0000968090714D5A86020680168490304D587
:1011E0000068000308D5A16C07E00168C90503D4B5
:1011F000016821F008010160216C09B1204688478F
:1012000094F85C102020884030424FF0010631D025
:1012100021680968C9062DD5A86094F8350005280D
:101220002068016806D0490347D5006800031DD433
:10123000616C1CE021F0160101602068416921F019
:1012400080014161206C08B9A06C20B12068016860
:1012500021F00801016094F85C103F208840A860EC
:1012600084F8348084F83560216D1FE0E16B09B1AA
:1012700020468847606D00282BD0606DC00714D0D1
:10128000052084F835002068016821F00101016023
:101290000098401C0090B84203D820680068C0073E
:1012A000F6D184F8348084F83560E16C002910D0E0
:1012B00001B02046BDE8F04308470168C905D5D410
:1012C000016821F01001016084F8348084F83560F1
:1012D000CCE7BDE8F883000000000020010080009A
:1012E0002DE9F041044600F08FF906465CB1002577
:1012F00084F83450022084F835002068016821F019
:10130000010101600DE00120BDE8F08100F07CF9F1
:10131000801B052805D920206065032084F835004E
:10132000F2E720680068C007F0D1226811681F4802
:101330000140D4E901031843D4E903363343184389
:1013400063691843A3691843E3691843236A184380
:101350000843616A042903D1D4E90B1319430843F4
:10136000106020684069666A20F0070130460E432D
:10137000012704280AD1A06A06432046FFF772FB22
:1013800020B14020606584F83570BCE72068466174
:101390002046FFF753FB94F85C203F219140816089
:1013A000656584F835700020AEE700003F8010F0DE
:1013B0002DE9F0410446866D90F83400002501289F
:1013C0000DD0012084F8340094F835700020012FEE
:1013D00007D084F8340002252846BDE8F0810220B9
:1013E000FBE7022784F8357060652046FFF764FB51
:1013F00094F85C103F208840B0602068016841F09C
:10140000160101602068416941F080014161206C52
:1014100020B12068016841F008010160206801687E
:1014200041F001010160D7E72DE9F84FDFF890B1F5
:1014300000224FF001084FF0030A4FF00F090BF1A3
:10144000040E00BF0B6808FA02F42340A3426ED1D9
:101450004D68022D01D0122D0ED1D50800EB850C60
:10146000DCF820505607F70E09FA07F6B5430E6967
:10147000BE402E43CCF82060066855000F790AFA6A
:1014800005FC07F0030726EA0C06AF403743076068
:101490004E68012E05D0022E03D0112E01D0122E3F
:1014A0000ED18768CE6827EA0C07AE403E438660BF
:1014B0004668A6430C79C4F3001494403443446056
:1014C000C4688E6824EA0C04AE402643C6604C68AB
:1014D000E4006FD53B4C256845F4804525602468C1
:1014E00022F0030504F480440094374C2E19D6F8FA
:1014F000084895072F0F09FA07F5AC43334DA8426A
:1015000001D100252EE0324DA84201D1012529E06C
:10151000304DA84201D1022524E02F4DA84201D12F
:1015200003251FE02D4DA84202D104251AE041E019
:101530002B4DA84201D1052514E02A4DA84201D126
:1015400006250FE0284DA84201D107250AE0274DC6
:10155000A84201D1082505E0254DA84201D1092561
:1015600000E00A25BD402543C6F80858DBF80040D6
:101570005D464E689C43F60300D51C432C60DEF8A4
:10158000004075464E689C43B60300D51C432C6052
:101590000B4D08352C684E689C43F60200D51C4361
:1015A0002C60074D0C352C684E689C43B60200D564
:1015B0001C432C60521C102AFFF444AFBDE8F88F86
:1015C000003C01404438024000300140000002402D
:1015D0000004024000080240000C024000100240DB
:1015E0000014024000180240001C0240002002408B
:1015F000002402400069084000D0012070470AB171
:10160000816170470904FBE70148006870470000EA
:101610003000002002480168491C0160704700004A
:10162000300000200B4810B5016841F400710160E2
:10163000016841F480610160016841F480710160DA
:10164000032000F075F8002000F006F800F018F80C
:10165000002010BD003C024010B5044607484FF47E
:101660007A710068B0FBF1F000F065FB00222146C2
:10167000501E00F03DF8002010BD000000000020CA
:1016800010B5032000F054F8002211466FF00B0053
:1016900000F02EF8002211466FF00A0000F028F842
:1016A000002211466FF0090000F022F800221146D6
:1016B000501F00F01DF800221146101F00F018F80E
:1016C00000221146901E00F013F80022BDE81040E1
:1016D0001146501E00F00CB800F01F02012191408D
:1016E0004009800000F1E020C0F8001170470000C0
:1016F000F0B40E4B1B680C46C3F30223C3F107057D
:10170000042D00D90425191D072901D2002300E06A
:10171000DB1E012606FA05F1491E214099409E4034
:10172000761E16403143F0BC01F01DBB0CED00E00D
:10173000064900F0070208684FF6FF03184040EA28
:101740000220034A10430860704700000CED00E0DF
:101750000000FA052DE9F8431E48016841F0805168
:1017600001600068012600F080500090300490FA7B
:10177000A0F0194FB0FA80F047F82060FFF744FF5F
:1017800005464FF47A78154C05E000BFFFF73CFFA3
:10179000401B404515D86068C003F7D54FF40030B2
:1017A00090FAA0F0B0FA80F047F82060FFF72CFF25
:1017B0000546464608E000BFFFF726FF401BB04243
:1017C00002D90320BDE8F88360688003F4D50020C7
:1017D000F8E700004038024000000E420070004070
:1017E0002DE9F047DFF8649105460F46D9F800006F
:1017F00000F00F01F8B28046B94208D2014689F8DC
:101800000010D9F8000000F00F00B84274D1287819
:101810004F4C800705D52068A96820F0F0000843E8
:1018200020602878C00759D04949686808390128DC
:101830001AD002281BD0032819D00968890700296B
:101840005ADA216821F0030101432160FFF7DCFE31
:101850006968064641F28830012911D002291DD05D
:101860000329824627D035E009688903E7E709683C
:101870008901E4E7FFF7C8FE811B514501D926E045
:1018800082462068C0F381000128F3D126E000BF22
:10189000FFF7BAFE811B514501D918E08246206846
:1018A000C0F381000228F3D118E000BFFFF7ACFEBF
:1018B000811B51450BD82068C0F381000328F5D166
:1018C0000CE000BFFFF7A0FE811B514502D90320A9
:1018D000BDE8F087206810F00C0FF3D1D9F80010A4
:1018E000484601F00F01B94208D980F8008000682D
:1018F00000F00F00B84201D00120E9E72878400746
:1019000005D52068E96820F4E05008432060287875
:10191000000706D52068296920F4604040EAC1002C
:10192000206000F051F82168F02292FAA2F201F052
:10193000F001B2FA82F2D140064A515CC840064931
:1019400008600020FFF788FE0020C1E7003C02404D
:1019500008380240C0390008000000200148006833
:101960007047000000000020084809490068096825
:101970004FF4E05292FAA2F201F4E051B2FA82F28C
:10198000D140044A515CC84070470000000000206C
:1019900008380240C0390008084809490068096849
:1019A0004FF4604292FAA2F201F46041B2FA82F27C
:1019B000D140044A515CC84070470000000000203C
:1019C00008380240C039000830B51948006810F0E6
:1019D0000C01184812D0441004290ED008290DD14A
:1019E0001349091F0A6802F03F030A68550247F6C7
:1019F000C07204D5B4FBF3F003E0204630BDB0FB69
:101A0000F3F00B680968134092FAA2F2B2FA82F27C
:101A1000D34058434FF4403292FAA2F201F44031DD
:101A2000B2FA82F2D140491C4900B0FBF1F030BD5E
:101A3000083802400024F4002DE9F84F0446DFF88E
:101A4000CC820078A8F1040BC007ABF1040537D0B5
:101A5000D8F800104046C1F38101012908D0006880
:101A6000C0F3810002280AD1DBF80000400206D54D
:101A70002868800324D56068002878D020E0A34936
:101A80002079891F0870606868B1FFF7BDFD0646C0
:101A900005E000BFFFF7B8FD801B642868D8286800
:101AA0008003F7D50CE0FFF7AFFD064605E000BF69
:101AB000FFF7AAFD801B6428F0D828688003F7D4BC
:101AC0002078934E80074FF0010A4FF0000742D56F
:101AD000D8F80010404611F00C0F08D00068C0F391
:101AE000810002280AD1DBF80000400206D42868F1
:101AF000800714D5E068012839D110E0E068D8B13A
:101B0000C6F800A0FFF780FD814605E0FFF77CFDE9
:101B1000A0EB09000228C1D828688007F6D52868FC
:101B2000F82292FAA2F22169B2FA82F220F0F800C9
:101B30009140084328600EE03760FFF765FD81465D
:101B400006E000BFFFF760FDA0EB090002280FD8F8
:101B500028688007F6D42078000728D56D48616989
:101B6000A1B1C0F800A0FFF74FFD814608E0CAE030
:101B700079E000BFFFF748FDA0EB0900022872D80A
:101B800062486C3000688007F4D510E00760FFF70A
:101B90003BFD814606E000BFFFF736FDA0EB0900E4
:101BA000022860D859486C3000688007F4D4207847
:101BB000400749D555483830016841F080510160EF
:101BC000006800F0805000905348016841F4807133
:101BD0000160FFF719FD814606E000BFFFF714FD25
:101BE000A0EB090002283ED84B480068C005F5D597
:101BF000DFF81891207A09F1680989F80000A068D7
:101C000088B1FFF701FD009008E000BFFFF7FCFC82
:101C10000099411A41F2883081426CD8D9F800000D
:101C20008007F3D510E0FFF7EFFC009008E000BF5D
:101C3000FFF7EAFC0099411A41F2883081425AD8F4
:101C4000D9F800008007F3D4A069E0B3D8F80010F9
:101C5000C1F38101022956D00228376604D0FFF76C
:101C6000D3FC04464AE046E0FFF7CEFC074604E01A
:101C7000FFF7CAFCC01B02283DD828688001F7D4B2
:101C8000D4E90701084347F6C07292FAA2F2616AEA
:101C9000B2FA82F29140A26A4FF0FF3303EB520294
:101CA0004FF4403393FAA3F3B3FA83F39A4011430A
:101CB00008434FF0706292FAA2F2E16AB2FA82F23D
:101CC0009140084300E01CE0CBF80000C6F860A09B
:101CD000FFF79AFC044604E0FFF796FC001B02287D
:101CE00009D828688001F7D50BE000BFFFF78CFC0E
:101CF000001B022802D90320BDE8F88F2868800164
:101D0000F4D40020F8E70120F6E70000083802408C
:101D100000004742800E4742007000404FF0E02133
:101D20000428086903D020F004000861704740F0DF
:101D30000400FAE7704710B5401EB0F1807F01D370
:101D4000012010BD4FF0E02460610F21601701F009
:101D50000AF80020A06107202061002010BD10B506
:101D6000FFF7E8FF10BD10B5040003D094F8390068
:101D700010B107E0012010BD002084F83800204693
:101D800000F00CF8022084F83900211D206801F0D1
:101D9000B1F8012084F83900002010BD08B50C4AC4
:101DA00001680C48914207D1016841F0800101604F
:101DB000006800F0800009E0074A914207D10168FD
:101DC00041F480710160006800F48070009008BDEB
:101DD000001C0040403802400020004030B50C4D4F
:101DE00003680021022409220A4885B0AB4201D1D0
:101DF000831503E0084DAB4208D15B150093CDE994
:101E00000141CDE903126946FFF70EFB05B030BD75
:101E1000001C0040001402400020004070B5044641
:101E200090F838000D4601280DD0012684F838605E
:101E3000022084F8390042B1042A18D0082A2AD096
:101E40000C2A4DD139E0022070BD206801F0BEF8A7
:101E50002068816941F0080181612068816921F071
:101E600004018161206881692A69114311E02068B9
:101E700001F0D8F82068816941F40061816120682F
:101E8000816921F480618161206881692A6941EA60
:101E90000221816124E0206801F0F6F82068C16920
:101EA00041F00801C1612068C16921F00401C161EC
:101EB0002068C1692A69114311E0206801F014F912
:101EC0002068C16941F40061C1612068C16921F4E1
:101ED0008061C1612068C1692A6941EA0221C1614A
:101EE00084F83960002084F8380070BD10B5040013
:101EF00003D094F8390010B107E0012010BD002094
:101F000084F83800204600F00CF8022084F83900EC
:101F1000211D206800F0EEFF012084F83900002028
:101F200010BD704710B504460068012201F042F868
:101F300008492068884202D00749884203D1416C91
:101F400041F4004141642068016841F001010160F1
:101F5000002010BD0000014000040140704710F84F
:101F6000391F40780843704770B50268044610680E
:101F7000D168536910F00F0F51D003F0010501F43F
:101F8000907635435DD0C20705D0CA0503D5E26B14
:101F900042F00102E263420705D5DA0703D0E26BA3
:101FA00042F00202E263820705D5DA0703D0E26B52
:101FB00042F00402E263020705D5DA0703D0E26BC0
:101FC00042F00802E263E26B002A34D0800604D5B6
:101FD000880602D5204601F0C5F820684069E16B0B
:101FE000C0F3801001F008010143204624D001F025
:101FF000ABF82068416949061AD5416921F04001D2
:102000004161606BA0B11B490165606BFFF782F80D
:10201000002810D0606B016DBDE870400847830652
:102020000FD58B060DD52046BDE8704001F09AB85B
:102030002046FFF793FF70BDFFF790FF0020E0639D
:1020400070BD030606D50B0604D52046BDE87040DA
:1020500001F024BA4006F3D54806F1D5D1682046F0
:1020600021F04001D160202184F8391000F095F969
:1020700070BD00003931000870B5040004D094F838
:102080003900002510B106E0012070BD84F83850F9
:10209000204600F023F8242084F839002068C16825
:1020A00021F40051C160204601F0A2F820680169C6
:1020B00021F4904101612068416921F02A014161C8
:1020C0002068C16841F40051C160E563202084F8B4
:1020D000390084F83A00002070BD000070B5244932
:1020E0000268022401250726224886B08A420BD1C5
:1020F00021490A6842F010020A60096801F01001E3
:1021000005914FF4C0610DE01B491C4B091F9A4219
:1021100012D10A6842F400320A60096801F4003101
:1021200005910C218DE832004FEA0D01CDE90346FF
:10213000FFF77AF906B070BD11488242FAD10868FB
:1021400040F4802008600868694600F4802005900B
:1021500010158DE83100CDE903460A48FFF764F910
:102160004FF400708DE8310069460748DEE7000053
:10217000001001400000024044380240004400408A
:102180000048004000040240000C024090F83A3041
:10219000202B1DD1D1B1CAB190F83830012B17D006
:1021A00081628285C2850021C163222280F83A20A3
:1021B00080F8381001684A6942F001024A610068FB
:1021C000C16841F49071C1600020704701207047E0
:1021D0000220704770B5304B0268012100209A42FE
:1021E00019D12E4A2E4C13782E4A2A2B0AD0232B93
:1021F0000BD0118801290AD12B492C4E0C88C4F32D
:102200000D053EE011802080F6E71080218070BD32
:102210001080088070BD264B9A421FD1254A264D5A
:10222000264B1478264AAA2C11D0552C13D0198885
:102230000129EFD11188234EC1F30D05491C89B244
:1022400074551180C729E5D91880108070BD198098
:1022500028801080EEE71880298070BD1A4B9A42C2
:10226000FBD11A4A1A4C13781A4A2A2B10D0232B66
:10227000CBD011880129F0D11749184E0C88C4F32E
:102280000D05641C7355A3B20B80C72BC0D870BD5D
:1022900011802080F0E7000000100140880000203D
:1022A000480000204600002034000020A00000204C
:1022B00000440040890000204C0000204A0000201B
:1022C0003600002030020020004800408A00002034
:1022D0003C0000204E0000203A000020F8020020C0
:1022E0002DE9F843044690F839001E4617460D467E
:1022F000202850D135B32FB394F8380001284AD0A4
:10230000012084F838004FF00008C4F83C802120F8
:1023100084F83900FFF778F9A784E78481464FF401
:102320008057E08C4B46401EE084A0684FF00002CE
:10233000B8424FF080012046009611D101F0DFF83D
:1023400000BB02E00120BDE8F8832888C0F3080143
:1023500020684160206908B16D1C08E0AD1C06E0F2
:1023600001F0CDF870B9216815F8010B4860E08CD8
:102370000028D6D14B46002240212046009601F08D
:10238000BEF808B10320DEE7202084F8390084F885
:1023900038800020D7E70220D5E77047FEE700002D
:1023A00070B50D4C0025C4F8A0520C48016821F40A
:1023B00040210160016841F480210160C4F8A45209
:1023C000022004F5287401F0FDF9012020600220AC
:1023D00001F0F8F9256070BD00804342000402401E
:1023E0000E4810B5016886B041F002010160006836
:1023F000012400F0020005904FF44070CDE9000484
:102400000220CDE9024069460548FFF70DF805486E
:10241000C0F8A442C0F8A04206B010BD3038024057
:1024200000040240008043420E4810B5016886B0A7
:1024300041F0020101600068012400F002000590F3
:10244000C020CDE900040220CDE9024069460648DB
:10245000FEF7EAFF0548C0F89C42C0F8984206B073
:1024600010BD000030380240001C02400080434292
:1024700070B50D4C0025C4F8A0520C48016821F439
:1024800040210160016841F4802101600126C4F807
:10249000A462022004F5287401F094F92660022059
:1024A00001F090F9256070BD0080434200040240B5
:1024B0002DE9F047814616480024016821F44021A7
:1024C000016001680160134E254627464FF0010860
:1024D000C6F8A072022001F075F9C6F8A082600665
:1024E000040ED6F8240208B1641CE4B2012001F005
:1024F00069F96D1CEDB2082DEAD3B9F1000F04D0D3
:10250000FFF74EFF2046BDE8F087FFF7B1FFF9E780
:1025100000040240008043422DE9F0410646144881
:10252000016821F440210160016841F480210160CB
:10253000104C0027C4F8A0723D464FF00108F00986
:10254000C4F8A4027006060E022001F03BF9C4F89C
:10255000A082022001F036F9C4F8A072022001F036
:1025600031F96D1CEDB2082DE9D3BDE8F081000012
:10257000000402400080434270B50D48016821F418
:1025800040210160016841F480210160094C012073
:10259000C4F8A402C4F8A002042004F5287401F0D1
:1025A00011F900256560042001F00CF9256070BD6B
:1025B00000040240008043420E4810B5016821F437
:1025C00040210160016841F4802101600A4C002033
:1025D000C4F8A002C4F8A402042004F5287401F091
:1025E000F1F8012020606060BDE81040042001F097
:1025F000E9B80000000402400080434270B5124870
:102600000024016821F440210160016801600F4D40
:102610000126C5F8A462304601F0D4F8C5F8A062DE
:10262000012001F0CFF807E0641CE4B2FA2C03D9D2
:10263000FFF7C2FF012070BDD5F824020028F3D1B6
:10264000C5F8A00270BD00000004024000804342B3
:102650002DE9F0474FF400581D4E0C460546002268
:10266000474641463046FEF7CAFF04F0F00000043A
:1026700004F00F0100EB01342C43012239463046AF
:10268000FEF7BDFF00254FF480494FF40047002CB2
:1026900001DA012200E0002249463046FEF7AFFF92
:1026A000012239463046FEF7AAFF022001F07CF8ED
:1026B000002239463046FEF7A2FF64006D1C182D3B
:1026C000E5D341463046BDE8F0470022FEF797BF0C
:1026D000001C02407FB512481049002501604FF4EC
:1026E0008031C0E90115056105620124C56284617C
:1026F000C4610463C5604461FEF723FC08B1FEF7C2
:1027000011FA0A208DE8310069460548FEF7CEFA35
:10271000002801D0FEF706FA7FBD0000002001402E
:10272000F8040020054808B5016841F48001016003
:10273000006800F48000009008BD000030380240BE
:102740002DE9F047594886B00026016841F0200184
:102750000160016801F020010591016841F08001EC
:102760000160016801F080010591016841F00101FB
:102770000160016801F001010591016841F0020169
:102780000160016801F002010591016841F0040156
:102790000160016801F004010591016841F0080140
:1027A0000160016801F008010591016841F0100124
:1027B0000160016801F010010591016841F04001DC
:1027C0000160016801F040010591016841F48071E8
:1027D00001600068012400F480700590F020CDE9CC
:1027E0000004DFF8CCA0032569465046CDE9024538
:1027F000FEF71AFE7C20CDE9000669462D48CDE99A
:102800000245FEF711FE0C20CDE90006DFF8A88096
:1028100069464046CDE90245FEF706FE6703CDE96D
:102820000074DFF8989069464846CDE90245FEF706
:10283000FBFDA803CDE9000669464846CDE90245FF
:10284000FEF7F2FD4FF46040CDE9000469461C48F4
:10285000CDE90245FEF7E8FD2002CDE90004694616
:102860001848CDE90245FEF7DFFD01221021404660
:10287000FEF7C5FE012210215046FEF7C0FE0122E0
:1028800020215046FEF7BBFE012240215046FEF7B4
:10289000B6FE012280215046FEF7B1FE00223946E5
:1028A0004846FEF7ACFE06B0BDE8F087303802407F
:1028B00000080240001002400018024000000240E0
:1028C000001C02400020024010B50022012112200D
:1028D000FEF70EFF1220FEF7FFFE00220321252047
:1028E000FEF706FF2520FEF7F7FE00220421262032
:1028F000FEF7FEFE2620FEF7EFFE00220521272030
:10290000FEF7F6FE2720FEF7E7FE00220221382020
:10291000FEF7EEFE3820FEF7DFFE6422054906488A
:10292000FEF77AFB002803D0BDE81040FEF7FAB8A6
:1029300010BD0000A0050020F804002010B51648C6
:1029400088B01449016059210024C0E9011440F203
:10295000F311C0E90314FFF706FA08B1FEF7E2F835
:102960000D48FFF7C3FA08B1FEF7DCF860200090CD
:102970000A48002269460088CDE90104064804940B
:10298000FFF74CFA08B1FEF7CDF80348FFF726FA37
:1029900008B010BD001C0040800400208C00002006
:1029A00010B5164888B01449016059210024C0E9C7
:1029B000011440F2F311C0E90314FFF7D4F908B190
:1029C000FEF7B0F80D48FFF791FA08B1FEF7AAF844
:1029D000602000900A48002269460088CDE9010481
:1029E00006480494FFF71AFA08B1FEF79BF803486B
:1029F000FFF7F4F908B010BD00200040BC0400202F
:102A00008E0000200E4810B50C4901604FF4E131F2
:102A10004160002181600C22C160C0E90412816123
:102A2000C161FFF729FB08B1FEF77CF8BDE8104053
:102A3000012204490248FFF7A9BB00000010014031
:102A4000C0030020880000200E4810B50C4901602A
:102A50004FF461414160002181600C22C160C0E9F6
:102A600004128161C161FFF707FB08B1FEF75AF854
:102A7000BDE81040012204490248FFF787BB00006F
:102A80000044004040040020890000200E4810B59A
:102A90000C4901604FF4E1314160002181600C225A
:102AA000C160C0E904128161C161FFF7E5FA08B1B4
:102AB000FEF738F8BDE81040012204490248FFF74C
:102AC00065BB000000480040000400208A00002090
:102AD000FEE700002DE9F05F2C4E2F4A00243378EA
:102AE00003272B4D2B48DFF8B48011684FF096096F
:102AF00041F6641A052B0DD2DFE803F014240E030F
:102B00003B0014222A8002804A63D8F80000426306
:102B100002203070BDE8F09FFEF706F8BDE8F05FD8
:102B2000FDF786BC4B462C800380814693464C6360
:102B3000D8F800004363504600F036FE2C80A9F818
:102B400000400FE04B462B80A94604800546934683
:102B50004B63D8F800004463504600F025FEA9F806
:102B600000402C80DBF800004463D8F80000446388
:102B70000AE02C8004804C63D8F80000446300F025
:102B8000B1FD0749072008703770C3E782000020B5
:102B90008C0000208E00002080040020BC04002057
:102BA000380000202DE9F05F304E314900243378A1
:102BB0000327304A304DDFF8C48008684FF096098B
:102BC00041F6641A052B0ED2DFE803F0152B0F0334
:102BD000420000212648FFF7A5F900212548FFF70C
:102BE000A1F902203070BDE8F09FFDF79DFFBDE820
:102BF000F05FFDF7A3BD4B462C80A8F80030C1461E
:102C00008B464463106890464363504600F0CCFD09
:102C10002C80A9F80040DBF800004463D8F80000DD
:102C200014E04B462B80A8F80040A9468B4643632E
:102C3000106815464463504600F0B6FDA9F8004000
:102C4000A8F80040DBF800004463286844630AE009
:102C50002C80A8F8004044631068446300F042FDF3
:102C60000749072008703770BDE700008200002088
:102C700080040020BC0400208C0000208E00002076
:102C8000380000202DE9F05F304E314A00243378BF
:102C900003273049304DDFF8C48010684FF0960AA2
:102CA00041F6641B052B0ED2DFE803F0152B0F0352
:102CB000420000212648FFF735F900212548FFF79B
:102CC00031F902203070BDE8F09FFDF72DFFBDE81F
:102CD000F05FFDF733BD2C80A8F800A05346C14635
:102CE00092464463086888464363584600F05CFD9A
:102CF0002C80A9F80040DAF800004463D8F80000FE
:102D000014E02C80A8F800A05346A94692464463DC
:102D100008680D464363584600F046FDA9F8004098
:102D2000A8F80040DAF800004463286844630AE029
:102D30002C80A8F8004044630868446300F0D2FC8B
:102D40000749072008703770BDE7000082000020A7
:102D500080040020BC0400208C0000208E00002095
:102D60003800002070470907090E002806DA00F035
:102D70000F0000F1E02080F8141D704700F1E02002
:102D800080F80014704770477047000010B54FF48A
:102D90007A742346032206490648FFF7A1FA234620
:102DA000BDE81040032204490248FFF799BA000029
:102DB00065000020000400206B0000200649002070
:102DC000088006490880064909684863054909687A
:102DD000486300F087BC00008C0000208E000020BB
:102DE00080040020BC04002010B5FEF713FCBDE8F1
:102DF0001040FEF7B4BF000030B5274893B000255F
:102E0000016841F080510160006800F0805011902D
:102E10002248016841F4404101600068022400F446
:102E2000404011900120009001908005CDE90640BE
:102E3000082008904FF4B470CDE9090404200B90E9
:102E40006846FEF7F9FD00B1FEE7FEF783FC00B12E
:102E5000FEE70CA90F2081E831004FF4A0500F903D
:102E60004FF48050109005210CA8FEF7B9FC00B17A
:102E7000FEE7FEF773FD4FF47A71B0FBF1F0FEF759
:102E80005AFF0420FEF74AFF00221146501EFEF7AB
:102E90002FFC13B030BD00004038024000700040ED
:102EA0001048016841F4700101600F48016841F069
:102EB000010101600C4A00210832116002680B4BCD
:102EC0001A400260031D0A4A1A60026822F4802236
:102ED000026005480C3001600249580680390860DC
:102EE0007047000088ED00E000380240FFFFF6FE6A
:102EF00010300024F0B50268234B244D244E254F9A
:102F0000254C4FF0804C984209D0604507D0A8422C
:102F100005D0B04203D0B84201D0A04204D122F083
:102F2000700E4A6842EA0E0298421BD0604519D0E2
:102F3000A84217D0B04215D0B84213D0A04211D049
:102F4000164DA8420ED0164DA8420BD0154DA842E2
:102F500008D0154DA84205D0144DA84202D0144DFA
:102F6000A84203D122F44075CA682A4302608A68E5
:102F7000C2620A688262984201D0A04201D1096906
:102F8000016301214161F0BD0000014000040040E7
:102F900000080040000C00400004014000400140D7
:102FA000004401400048014000180040001C00405F
:102FB0000020004010B50123046A8B409C4304624A
:102FC000036A8A401343036210BD000030B5026AF1
:102FD00022F001020262026A436884690D6824F0EB
:102FE0007304254322F002048A6822430B4CA0425A
:102FF00002D00B4CA0420BD122F00804CA6823F483
:10300000407322434C6922F004021C438B69234322
:103010004360856149684163026230BD0000014040
:103020000004014030B5026A22F010020262026A16
:10303000436884690D6824F4E64444EA05248D68F5
:1030400022F0200242EA05120D4DA84202D00D4D99
:10305000A8420ED1CD6822F0800242EA05124D69E5
:1030600023F4406343EA85038D6922F0400243EA7A
:1030700085034360846149688163026230BD00005A
:10308000000001400004014030B5026A22F4807261
:103090000262036A4268C46923F4007324F0730572
:1030A0000C682C438D6843EA05230D4DA84202D0DD
:1030B0000C4DA8420ED1CD6823F4006343EA0523EA
:1030C0004D6922F4405242EA05128D6923F480636F
:1030D00042EA05124260C4614968C163036230BDBF
:1030E000000001400004014030B5026A22F4805221
:1030F0000262046A4268C3690D6823F4E64343EA46
:1031000005238D6824F4005444EA0534084DA84290
:1031100002D0084DA84204D14D6922F4804242EA0F
:1031200085124260C36149680164046230BD0000D9
:10313000000001400004014010B5806B0021C185F2
:10314000C184FEF70BFF10BD0168CA6822F49072BB
:10315000CA6001684A6922F001024A61202180F8B0
:103160003A10704710B590F83A10222901D0022089
:1031700010BD8168B1F5805F11D001690029016837
:103180001FD0496801F07F03816A4A1C82620B707C
:10319000C18D491E0904090CC18518D026E00269B9
:1031A000816A002A0268526805D0D2B20A80816A18
:1031B000491C8162ECE7C2F308020A80816A891C1B
:1031C000F7E74A68816A4B1C83620A70E0E701688E
:1031D000CA6822F49072CA6001684A6922F001024A
:1031E0004A61202180F83A10FEF7F4FF002010BD5C
:1031F0002DE9F04104460068016921F44052E1687C
:10320000114301612168C86849F20C629043236947
:10321000A268E5691A4363692B431A430243CA60F3
:103220002168486920F44072A06910434861E1694F
:103230006425B1F5004F9748974A21684FF032084E
:103240003FD0914201D081427CD1FEF7A5FB00EB3B
:10325000C00101EB001061688900B0FBF1F6FEF7D8
:103260009BFB00EBC00101EB001061688900B0FB23
:10327000F1F0B0FBF5F06FF01801484306EB800168
:1032800008EB0110B0FBF5F000F0F006FEF784FB50
:1032900000EBC00101EB001061688900B0FBF1F0A8
:1032A000B0FBF5F006EB0016FEF776FB00EBC00175
:1032B00001EB001061688900B0FBF1F7FEF76CFBD1
:1032C000D2E0914201D081423DD1FEF765FB00EB97
:1032D000C00101EB001061684900B0FBF1F0B0FBE8
:1032E000F5F00601FEF758FB00EBC00101EB001002
:1032F00061684900B0FBF1F7FEF74EFB00EBC0013F
:1033000001EB001061684900B0FBF1F0B0FBF5F093
:103310006FF01801484307EB800108EBC100B0FBD8
:10332000F5F000F0F80006EB4006FEF735FB00EB89
:10333000C00101EB001061684900B0FBF1F7FEF736
:103340002BFB3CE055E0FEF70FFB00EBC00101EB6F
:10335000001061684900B0FBF1F0B0FBF5F0060128
:10336000FEF702FB00EBC00101EB001061684900B1
:10337000B0FBF1F7FEF7F8FA00EBC00101EB00102B
:1033800061684900B0FBF1F0B0FBF5F06FF0180197
:10339000484307EB800108EBC100B0FBF5F000F0FB
:1033A000F80006EB4006FEF7DFFA00EBC00101EB88
:1033B000001061684900B0FBF1F7FEF7D5FA00EBA9
:1033C000C00101EB001061684900B0FBF1F0B0FBF7
:1033D000F5F06FF01801484307EB800108EBC100DE
:1033E000B0FBF5F000F00700216830448860BDE8CC
:1033F000F081FEF7B9FA00EBC00101EB0010616843
:103400008900B0FBF1F6FEF7AFFA00EBC00101EB6B
:10341000001061688900B0FBF1F0B0FBF5F06FF0CF
:103420001801484306EB800108EB0110B0FBF5F0F2
:1034300000F0F006FEF798FA00EBC00101EB001077
:1034400061688900B0FBF1F0B0FBF5F006EB001607
:10345000FEF78AFA00EBC00101EB001061688900F9
:10346000B0FBF1F7FEF780FA00EBC00101EB0010B2
:1034700061688900B0FBF1F0B0FBF5F06FF0180166
:10348000484307EB800108EB0110B0FBF5F000F0BA
:103490000F00A9E7001401400010014090F8391016
:1034A000212901D0022070478168B1F5805F016A4F
:1034B0000BD04A1C0262026809785160C18C491E17
:1034C0000904090CC1840ED017E009880268C1F311
:1034D0000801516001690029016A02D0491C01629A
:1034E000ECE7891CFBE70168CA6822F08002CA6029
:1034F0000068C16841F04001C160002070472DE9BB
:10350000F041984617460E460446069D1DE0681C8D
:103510001BD02DB1FEF778F8A0EB0800A84214D913
:103520002068C16821F4D071C1602068416921F030
:1035300001014161202084F8390084F83A0000201C
:1035400084F838000320BDE8F0812068006836EA7E
:10355000000004D00020B842D9D00020F3E70120B9
:10356000F9E7000010B50848FEF7FEFC0648FEF734
:10357000F6FC2028FAD1012204490348FEF706FE92
:103580000028F8D110BD0000C003002088000020F2
:1035900010B50848FEF7E8FC0648FEF7E0FC2028D6
:1035A000FAD1012204490348FEF7F0FD0028F8D1C2
:1035B00010BD0000400400208900002010B508481C
:1035C000FEF7D2FC0648FEF7CAFC2028FAD10122F9
:1035D00004490348FEF7DAFD0028F8D110BD0000C9
:1035E000000400208A0000202DE9F0411A4E3088A6
:1035F000800000F0ABF9194F194D002438606C6061
:1036000008E0182000F0A2F93A68696842F8210041
:10361000491C6960318868688842F2DB6C60114A35
:10362000A86811E0002004EB440100BFD7F800C0F7
:1036300000EB410313445CF824C0DB794CF82030E4
:10364000401C0628F2DB641C31888C42EADBC5E9A9
:103650000140BDE8F08100005000002084000020FF
:103660000800002068010020F0B5154D28880128C9
:1036700024D1144E144815493478047000230B806B
:10368000134A144F06E000BF17F800C002F800C04C
:10369000401C08800888A042F6D92B8033805079DE
:1036A0009179303800EB80006FF02F0202EB400080
:1036B000084409490880094903200870F0BD00004A
:1036C0003C0000203A0000208B0000200800002071
:1036D00068010020F802002050000020380000207F
:1036E000FEE700002DE9F0411DA19820FDF7F9F952
:1036F0001D491E4C1E4E08684FF07A47C8300860BE
:1037000042F21071B0FBF1F22270B0FBF1F201FB5A
:1037100012014FF47A72B1FBF2F1B0FBF2F302FB4B
:1037200013036422B3FBF2F361700A21A170E3700A
:10373000B0FBF2F302FB1300B0FBF1F020710B20A1
:1037400060710025605D315C3846FEF781FF032023
:1037500000F02AF86D1C062DF4DBBDE8F0810000B6
:10376000B5E7D1B93A0000005400002090000020D5
:103770005800002002E008C8121F08C1002AFAD130
:1037800070477047002001E001C1121F002AFBD1E1
:103790007047000010B504460420FEF7BFFA014848
:1037A000046010BD0400002070B5054600244FF4ED
:1037B0007A7603E0304600F005F8641CAC42F9D399
:1037C00070BD000070B54FF0E02400226569094922
:1037D000A36909684843A1699942FCD002D2A3EBCE
:1037E000010302E0A5EB010633441A440B46824272
:1037F000F1D370BD04000020FDF714FFFFF7FCFAC1
:10380000B420FFF7C7FFFEF79BFFFEF78BFFFFF724
:10381000F9F8FFF719F9FFF739F9FFF78FF8FFF714
:10382000BFF8FEF757FFFEF7FFFDFEF7D9FDFFF7E4
:103830004BF8DFF80C81434D434C4FF47A774FF04F
:1038400004094FF0050A4FF0060B002620780928DE
:10385000FCD2DFE800F01806052B5C5F71286200DF
:10386000F4E7FDF757F9FFF791FAA0880128EDD1A9
:1038700028796F2804D168796B2801D1072020703E
:10388000A6806680E2E7A0880128DFD12879662833
:1038900046D062284AD07228F2D168796B28EFD1DD
:1038A00084F800B0ECE7FFF7DFFECFE7FFF79CFE00
:1038B00004214046FDF79EFE012810D122492148EF
:1038C0003B4603220A31C830FEF70AFD1E491D4857
:1038D0003B460222891DC830FEF702FD26700821F2
:1038E0004046FDF787FE0128B0D1174915483B46F1
:1038F00003220A31C830FEF7F3FC134911483B4656
:1039000002220831C830FEF7EBFC26709EE7FFF775
:10391000E1F89BE7FFF746F998E7FFF74FFAB2E7C0
:1039200068797728ACD184F80090A9E768796B288A
:10393000A6D184F800A0A3E7FFF7A4F986E700006A
:1039400000180240F802002038000020F0B50B30CB
:10395000154D20F007010024144A0FE003688B4244
:103960000BD38B4205D95E1A43184768C3E9006739
:1039700000E04368136002C004E0021D10680028E4
:10398000ECD12046002802D1286808B10020F0BD03
:10399000064A07481060074A121A22F00702C0E9D7
:1039A000002401202860D7E79C0000209800002018
:1039B0006C0600206808002000061016000610168D
:1039C00000000000010203040102030406070809C5
:1039D000F039000800000020A00000007437000843
:1039E000903A0008A0000020C80B000084370008AF
:1039F0000024F400000000000000000000000000AF
:103A000000000000000000000000000000000000B6
:103A100000000000000000000000000000000000A6
:103A200000000000000000000300000000006677B6
:103A3000626B54534B0000000000000000000000C7
:103A400000000000000000003031323334353637DA
:103A500038392E76004F424A4C4F43303030AA0955
:103A6000200000000003000255AA021055AA02120D
:103A700055010300000000000000000000000000ED
:103A80000000000000000000000000000000000036
:04000005080001AD41
:00000001FF
