:020000040800F2
:10000000500C0020C10100084D28000811200008F4
:10001000ED260008ED0600089D31000800000000F4
:10002000000000000000000000000000712800082F
:10003000A1070008000000006F280008A72800089A
:10004000DB010008DB010008DB010008DB01000820
:10005000DB010008DB010008DB010008DB01000810
:10006000DB010008DB010008DB010008DB01000800
:10007000DB010008DB010008DB010008DB010008F0
:10008000DB010008DB0100088D020008DB0100082D
:10009000DB010008DB010008DB010008DB010008D0
:1000A000DB010008DB010008DB010008DB010008C0
:1000B000DB010008DB010008DB010008DB010008B0
:1000C000DB010008DB010008DB010008DB010008A0
:1000D000DB010008213000084D30000879300008AD
:1000E000DB010008DB010008DB010008DB01000880
:1000F000DB010008DB010008DB010008DB01000870
:10010000DB010008DB010008DB010008DB0100085F
:10011000DB010008DB010008DB010008DB0100084F
:10012000F1060008DB010008DB010008DB01000824
:10013000DB010008DB010008DB010008DB0100082F
:10014000DB010008DB010008DB010008DB0100081F
:10015000DB010008DB010008DB010008DB0100080F
:10016000DB010008DB010008DB010008DB010008FF
:10017000DB010008DB010008DB01000800000000D3
:10018000DB010008DB010008DB010008DB010008DF
:10019000DB010008DB010008DB010008DB010008CF
:1001A000DB010008DB010008DB010008DFF80CD0F0
:1001B00000F018F800480047B5320008500C002045
:1001C0000648804706480047FEE7FEE7FEE7FEE7F1
:1001D000FEE7FEE7FEE7FEE7FEE7FEE75D29000833
:1001E000AD010008064C074D06E0E06840F0010351
:1001F00094E8070098471034AC42F6D3FFF7DAFFD3
:100200005C3400087C34000810B50146806B026C39
:1002100012F0500F05D0806BC26CBDE8104008464C
:100220001047016C41F40071016401688A6812F0A2
:10023000405F17D18269AAB9CA6A12F4700F02D05E
:100240008A6852050ED44A6822F020024A60016C86
:1002500021F480710164016CC90403D4016C41F084
:100260000101016400F0D8FB10BD10B5806B402186
:100270000164416C41F00401416400F0CFFB10BD0A
:1002800010B5806B00F0C9FB10BD0000014800F004
:10029000C6BB0000240400204A4910B5D1F804234D
:1002A00022F44032C1F80423D1F8042343681A43EE
:1002B000C1F8042301684A6822F480724A60016828
:1002C0004A68036942EA03224A6001684A6822F0E8
:1002D00040724A6001684A6883681A434A6001684C
:1002E0008A6822F400628A6001688A68C3681A43D7
:1002F0008A60816A6FF07062D14201688A6822F078
:1003000070628A6001688A680CD0836A1A438A60C6
:1003100001688A6822F040528A6001688A68C36A6C
:100320001A4301E022F040528A6001688A6822F094
:1003300002028A6001688A68836942EA43028A602D
:10034000016A002901684A6815D042F400624A60D7
:1003500001684A6822F460424A6001684B684FF4C1
:100360006044426A94FAA4F4B4FA84F4521EA2409F
:1003700013434B6002E022F400624A600168CA6ADB
:1003800022F47002CA620168CA6A838B0E4C04EBC5
:1003900003531A43CA6201688A6822F400728A60B1
:1003A00001688A68036B42EA43228A6001688A68AE
:1003B00022F480628A6001688A68406942EA80208B
:1003C000886010BD002001400000F0FF70B51446A9
:1003D0000D46064608E03046711C8EB200F007F864
:1003E000641E05F8010BA4B2002CF4D170BD10B549
:1003F000044601F0FBFE200AA02101EB4000C0B240
:1004000001F0C4FE01F034FFE0B201F0BFFE01F0E4
:100410002FFF01F0EBFEA12001F0B8FE01F028FF54
:10042000002001F07FFE044601F000FF204610BDD1
:1004300070B54F4C0121204600F0E8FE4FF4804596
:10044000012816D10221204600F0E0FE012810D13B
:100450000821204600F0DAFE58B91021204600F0AD
:10046000D5FE012805D12946204600F0CFFE0128FF
:100470007DD00121204600F0C9FE012810D10221C3
:10048000204600F0C3FE58B91021204600F0BEFE01
:10049000012805D12946204600F0B8FE012866D083
:1004A0000121204600F0B2FE012810D10221204691
:1004B00000F0ACFE01280AD11021204600F0A6FE73
:1004C00028B92946204600F0A1FE01284FD001217D
:1004D000204600F09BFE88B90221204600F096FEDF
:1004E00001280BD11021204600F090FE012805D1F3
:1004F0002946204600F08AFE012838D001212046F6
:1005000000F084FE012811D10221204600F07EFE79
:1005100001280BD11021204600F078FE012805D1DA
:100520002946204600F072FE002820D001212046F6
:1005300000F06CFE00281AD10221204600F066FE71
:10054000002814D10821204600F060FE00280ED1BA
:100550001021204600F05AFE002808D129462046E6
:1005600000F054FE002802D102490420087070BD3A
:10057000000402406400002010B54FF47A74234652
:1005800003220649064801F0E5FC2346BDE8104079
:1005900004220449024801F0DDBC000048000020AC
:1005A000E40300201802002010B54E4C0421204620
:1005B00000F02CFE012816D10821204600F026FE6E
:1005C000012810D11021204600F020FE58B920212A
:1005D000204600F01BFE012805D14021204600F0F6
:1005E00015FE01287DD00421204600F00FFE0128D1
:1005F00010D10821204600F009FE58B920212046DC
:1006000000F004FE012805D14021204600F0FEFD47
:10061000012866D00421204600F0F8FD012810D101
:100620000821204600F0F2FD01280AD120212046B1
:1006300000F0ECFD28B94021204600F0E7FD01283C
:100640004FD00421204600F0E1FD88B90821204662
:1006500000F0DCFD01280BD12021204600F0D6FD62
:10066000012805D14021204600F0D0FD012838D0D6
:100670000421204600F0CAFD012811D1082120469E
:1006800000F0C4FD01280BD12021204600F0BEFD62
:10069000012805D14021204600F0B8FD002820D0D7
:1006A0000421204600F0B2FD00281AD1082120467E
:1006B00000F0ACFD002814D11021204600F0A6FD6A
:1006C00000280ED12021204600F0A0FD002808D1EE
:1006D0004021204600F09AFD002802D10249042062
:1006E000087010BD0010024064000020FEE700000A
:1006F000014800F02DBB0000EC0500200168182324
:10070000CAB2103AB2FBF3F2054B6FF30901032AA8
:100710009B5CC36500D9091D8165084670470000D0
:100720004434000810B5014600208B698A6A4FF0F6
:10073000C07453B1B3F5005F15D072B1012A0CD06B
:10074000022A0AD0032A09D104E01AB1012A06D0EC
:10075000022A03D1C96AC90100D5012010BDC96AA6
:10076000A142FAD010BD002AF7D0012AF2D0022A05
:10077000F3D0032AF3D010BD30B50468256825F402
:1007800080252560046863608368402B036803D07C
:1007900099600068C26030BD9A600068C16030BD79
:1007A000704770B50C4601464FF0784001F08AFD65
:1007B000032002F057FD4FF07A4506E0284601F08D
:1007C00081FD0320641C02F04DFD21780029F5D144
:1007D00070BD0000032202490020FFF7F7BD0000B2
:1007E0004D000020FEE700002DE9F041204C0025DF
:1007F0004FF47A782078012806D1434604221D4917
:100800001D4801F0A7FB25701C4E308801282BD114
:100810001B4801274178032904D0152915D0032945
:1008200005D01AE08178102905D0122907D08178E7
:1008300020290FD011E0C078012814D00DE0C07835
:1008400058B943460B220F490AE0FFF795FE00F026
:100850001DF80BE0C078802808D00B4943460422DD
:10086000054801F077FB3580BDE8F0812770FAE795
:10087000630000205B0000203405002024000020DD
:1008800014020020500000205F00002070B50A49CB
:100890000020084A0C6809490B8808E054F8201029
:1008A00016790D68B54201D156794D68401C9842C1
:1008B000F4DD70BD1402002068000020320000202A
:1008C0007047000078B50024009490F83C20012A7D
:1008D00019D0012280F83C200A6807230568092AFC
:1008E00013D9EE680A3A02EB420293409E43EE604F
:1008F0000B788A680A3B03EB43039A400368DD6880
:100900002A43DA6010E0022078BD2E6902EB420231
:1009100093409E432E610A788B6802EB420293401B
:10092000026815692B4313614A681F23072A13D2F3
:1009300005686E6B521E02EB820293409E436E630B
:100940000A8893B20A79521E02EB8202934002682F
:10095000556B2B43536327E005680D2A12D22E6B8B
:10096000D21F02EB820293409E432E630B790A88CA
:10097000DB1F92B203EB83039A4003681D6B2A438B
:100980001A6311E0EE6A0D3A02EB820293409E4335
:10099000EE620B790A880D3B92B203EB83039A4017
:1009A0000368DD6A2A43DA62174A0368934208D172
:1009B0000B68122B05D1D2F8043343F48003C2F83C
:1009C0000433036893421BD1104B0D689D4201D044
:1009D000112D15D1D2F8045345F40005C2F8045383
:1009E000096899420CD10A490A4A0968B1FBF2F137
:1009F00001EB8101490000E0491E00910029FBD173
:100A000080F83C40002078BD00200140120000101A
:100A10000000002040420F0070477047704770B5DB
:100A20000446006801684268C1F34001C2F3401205
:100A300051B34AB3216CC90603D4216C41F400714F
:100A40002164816811F0405F17D1A169A9B9C16A19
:100A500011F4700F02D0816849050ED4416821F06D
:100A600020014160206C20F480702064206CC00460
:100A700003D4206C40F0010020642046FFF7CCFF37
:100A800021686FF012000860206801684268C1F3B5
:100A90008001C2F3C01289B382B3216CC90603D4AA
:100AA000216C41F400512164816811F4401F1ED172
:100AB000816B11F4401F02D08168490517D4416849
:100AC000490514D4816811F0405F10D1A16971B952
:100AD000416821F080014160206C20F48050206446
:100AE000206CC00503D4206C40F001002064204637
:100AF000FFF7E6FE21686FF00C00086020680168CF
:100B0000426811F0010FC2F380120ED06AB1006882
:100B1000C0070AD0206C40F480302064204600F0EA
:100B200046F821686FF0010008602068016842689B
:100B3000C1F34011C2F3806200290DD0002A0BD00E
:100B4000616C41F0020161646FF020050560204690
:100B5000FFF764FF2068056070BD70B504004FF0BA
:100B6000000503D0206C002610B107E0012070BD05
:100B7000666484F83C60204600F01AF8206CC006D9
:100B800010D4206C20F4885040F0020020642046ED
:100B9000FFF782FB6664206C20F0020040F0010049
:100BA000206400E0012584F83C60284670BD704751
:100BB00070B506460068194986B088422BD118489E
:100BC0000025016841F4807101600068694600F405
:100BD00080700590012000900320CDE901051148A7
:100BE00000F02EFA114C1048C4E900050015A5606C
:100BF000C4E90350400060618000A0614011E061E1
:100C00004002C4E90805204600F076F908B1FFF774
:100C1000E9FDB463A66306B070BD0000002001408A
:100C2000443802400008024010640240EC050020F5
:100C3000F8B50D4600210446009190F83C000128CB
:100C400007D0012084F83C0020688368DB0702D0CD
:100C500011E00220F8BD836843F0010383602D4852
:100C60002D4B0068B0FBF3F000EB400000E0401EAD
:100C700000900028FBD120688368DB0748D0236CF4
:100C800040F20166B34343F4807323644068400537
:100C900005D5206C20F4005040F480502064206C76
:100CA000C00404D5606C20F00600606400E061645C
:100CB00084F83C10A16B1948C863A16B18480864FC
:100CC000A16B1848C86421686FF022000860206892
:100CD000416841F0806141602068816841F4807121
:100CE0008160216813462A464C31A06B00F06CF9F4
:100CF0000D49D1F80403C006206801D0884207D10D
:100D0000816811F0405F03D1816841F080418160CA
:100D10000020F8BD0000002040420F00090200083A
:100D2000810200086B0200080020014090F8351095
:100D3000022903D08021416501207047052180F8F8
:100D400035100068016821F0010101600020704742
:100D50002DE9F84304464FF00008CDF800806448C0
:100D60004FF41651A56D0068B0FBF1F72E6894F8AA
:100D70005C10082000FA01F131420FD021680A68A6
:100D800052070BD50A6822F004020A6094F85C103E
:100D90008840A860606D40F00100606594F85C10C8
:100DA00054488840304208D021684969090604D572
:100DB000A860606D40F0020060654E4894F85C10D9
:100DC000C01C8840304208D021680968890704D5D2
:100DD000A860606D40F00400606594F85C1010201D
:100DE0008840304218D021680968090714D5A860E6
:100DF00020680168490304D50068000308D5A16C88
:100E000007E00168C90503D4016821F00801016009
:100E1000216C09B12046884794F85C102020884056
:100E200030424FF0010631D021680968C9062DD53E
:100E3000A86094F8350005282068016806D04903A9
:100E400047D5006800031DD4616C1CE021F0160139
:100E500001602068416921F080014161206C08B97E
:100E6000A06C20B12068016821F00801016094F8AD
:100E70005C103F208840A86084F8348084F8356096
:100E8000216D1FE0E16B09B120468847606D0028A5
:100E90002BD0606DC00714D0052084F83500206881
:100EA000016821F0010101600098401C0090B842E7
:100EB00003D820680068C007F6D184F8348084F82D
:100EC0003560E16C002910D001B02046BDE8F04348
:100ED00008470168C905D5D4016821F010010160F7
:100EE00084F8348084F83560CCE7BDE8F8830000EE
:100EF00000000020010080002DE9F041044600F0D0
:100F00008FF906465CB1002584F83450022084F83D
:100F100035002068016821F0010101600DE0012029
:100F2000BDE8F08100F07CF9801B052805D9202060
:100F30006065032084F83500F2E720680068C00788
:100F4000F0D1226811681F480140D4E90103184319
:100F5000D4E903363343184363691843A36918433C
:100F6000E3691843236A18430843616A042903D1DB
:100F7000D4E90B1319430843106020684069666A7E
:100F800020F0070130460E43012704280AD1A06A49
:100F900006432046FFF7C6FB20B14020606584F879
:100FA0003570BCE7206846612046FFF7A7FB94F840
:100FB0005C203F2191408160656584F83570002098
:100FC000AEE700003F8010F02DE9F0410446866D49
:100FD00090F83400002501280DD0012084F8340059
:100FE00094F835700020012F07D084F834000225D2
:100FF0002846BDE8F0810220FBE7022784F835701F
:1010000060652046FFF7B8FB94F85C103F208840ED
:10101000B0602068016841F01601016020684169F4
:1010200041F080014161206C20B12068016841F0ED
:10103000080101602068016841F001010160D7E703
:101040002DE9F84FDFF890B100224FF001084FF082
:10105000030A4FF00F090BF1040E00BF0B6808FAEA
:1010600002F42340A3426ED14D68022D01D0122D0F
:101070000ED1D50800EB850CDCF820505607F70E92
:1010800009FA07F6B5430E69BE402E43CCF820603E
:10109000066855000F790AFA05FC07F0030726EAEF
:1010A0000C06AF40374307604E68012E05D0022E74
:1010B00003D0112E01D0122E0ED18768CE6827EAF8
:1010C0000C07AE403E4386604668A6430C79C4F3E5
:1010D0000014944034434460C4688E6824EA0C04CD
:1010E000AE402643C6604C68E4006FD53B4C256893
:1010F00045F480452560246822F0030504F480440B
:101100000094374C2E19D6F8084895072F0F09FA86
:1011100007F5AC43334DA84201D100252EE0324DF6
:10112000A84201D1012529E0304DA84201D1022574
:1011300024E02F4DA84201D103251FE02D4DA842E8
:1011400002D104251AE041E02B4DA84201D105252A
:1011500014E02A4DA84201D106250FE0284DA842EF
:1011600001D107250AE0274DA84201D1082505E055
:10117000254DA84201D1092500E00A25BD4025439F
:10118000C6F80858DBF800405D464E689C43F603FD
:1011900000D51C432C60DEF8004075464E689C4329
:1011A000B60300D51C432C600B4D08352C684E68E7
:1011B0009C43F60200D51C432C60074D0C352C686F
:1011C0004E689C43B60200D51C432C60521C102A6A
:1011D000FFF444AFBDE8F88F003C014044380240C2
:1011E00000300140000002400004024000080240BC
:1011F000000C02400010024000140240001802409F
:10120000001C024000200240002402400069084007
:1012100000D0012070470AB1816170470904FBE7E3
:10122000014800687047000014000020024801686F
:10123000491C016070470000140000200B4810B5E5
:10124000016841F400710160016841F4806101604E
:10125000016841F480710160032000F075F80020FE
:1012600000F006F800F018F8002010BD003C024025
:1012700010B5044607484FF47A710068B0FBF1F0EE
:1012800000F065FB00222146501E00F03DF80020D2
:1012900010BD00000000002010B5032000F054F83D
:1012A000002211466FF00B0000F02EF800221146CC
:1012B0006FF00A0000F028F8002211466FF00900D4
:1012C00000F022F800221146501F00F01DF8002205
:1012D0001146101F00F018F800221146901E00F071
:1012E00013F80022BDE810401146501E00F00CB863
:1012F00000F01F02012191404009800000F1E02030
:10130000C0F8001170470000F0B40E4B1B680C468B
:10131000C3F30223C3F10705042D00D90425191DC9
:10132000072901D2002300E0DB1E012606FA05F1A1
:10133000491E214099409E40761E16403143F0BC24
:1013400001F085BA0CED00E0064900F007020868DC
:101350004FF6FF03184040EA0220034A104308609A
:10136000704700000CED00E00000FA052DE9F8439D
:101370001E48016841F0805101600068012600F0BC
:1013800080500090300490FAA0F0194FB0FA80F02D
:1013900047F82060FFF744FF05464FF47A78154C74
:1013A00005E000BFFFF73CFF401B404515D86068D3
:1013B000C003F7D54FF4003090FAA0F0B0FA80F0F7
:1013C00047F82060FFF72CFF0546464608E000BFBF
:1013D000FFF726FF401BB04202D90320BDE8F88387
:1013E00060688003F4D50020F8E700004038024030
:1013F00000000E42007000402DE9F047DFF86491D4
:1014000005460F46D9F8000000F00F01F8B28046FB
:10141000B94208D2014689F80010D9F8000000F05E
:101420000F00B84274D128784F4C800705D520684A
:10143000A96820F0F000084320602878C00759D040
:1014400049496868083901281AD002281BD00328A6
:1014500019D00968890700295ADA216821F00301A7
:1014600001432160FFF7DCFE6968064641F28830DF
:10147000012911D002291DD00329824627D035E049
:1014800009688903E7E709688901E4E7FFF7C8FE0F
:10149000811B514501D926E082462068C0F38100B6
:1014A0000128F3D126E000BFFFF7BAFE811B5145AA
:1014B00001D918E082462068C0F381000228F3D1E8
:1014C00018E000BFFFF7ACFE811B51450BD8206828
:1014D000C0F381000328F5D10CE000BFFFF7A0FEA8
:1014E000811B514502D90320BDE8F087206810F028
:1014F0000C0FF3D1D9F80010484601F00F01B942A2
:1015000008D980F80080006800F00F00B84201D0D0
:101510000120E9E72878400705D52068E96820F42C
:10152000E050084320602878000706D52068296924
:1015300020F4604040EAC100206000F051F82168CA
:10154000F02292FAA2F201F0F001B2FA82F2D14056
:10155000064A515CC840064908600020FFF788FE33
:101560000020C1E7003C0240083802404C3400082B
:1015700000000020014800687047000000000020C3
:1015800008480949006809684FF4E05292FAA2F24B
:1015900001F4E051B2FA82F2D140044A515CC840F1
:1015A0007047000000000020083802404C3400085A
:1015B00008480949006809684FF4604292FAA2F2AB
:1015C00001F46041B2FA82F2D140044A515CC84051
:1015D0007047000000000020083802404C3400082A
:1015E00030B51948006810F00C01184812D04410AA
:1015F00004290ED008290DD11349091F0A6802F0E9
:101600003F030A68550247F6C07204D5B4FBF3F0F5
:1016100003E0204630BDB0FBF3F00B6809681340CF
:1016200092FAA2F2B2FA82F2D34058434FF4403217
:1016300092FAA2F201F44031B2FA82F2D140491C8E
:101640004900B0FBF1F030BD083802400024F4003E
:101650002DE9F84F0446DFF8CC820078A8F1040B9E
:10166000C007ABF1040537D0D8F800104046C1F3ED
:101670008101012908D00068C0F3810002280AD145
:10168000DBF80000400206D52868800324D5606896
:10169000002878D020E0A3492079891F087060686D
:1016A00068B1FFF7BDFD064605E000BFFFF7B8FDD6
:1016B000801B642868D828688003F7D50CE0FFF702
:1016C000AFFD064605E000BFFFF7AAFD801B6428BA
:1016D000F0D828688003F7D42078934E80074FF025
:1016E000010A4FF0000742D5D8F80010404611F02B
:1016F0000C0F08D00068C0F3810002280AD1DBF883
:101700000000400206D42868800714D5E06801284C
:1017100039D110E0E068D8B1C6F800A0FFF780FD2D
:10172000814605E0FFF77CFDA0EB09000228C1D847
:1017300028688007F6D52868F82292FAA2F2216973
:10174000B2FA82F220F0F8009140084328600EE0DF
:101750003760FFF765FD814606E000BFFFF760FDDB
:10176000A0EB090002280FD828688007F6D420785B
:10177000000728D56D486169A1B1C0F800A0FFF746
:101780004FFD814608E0CAE079E000BFFFF748FD61
:10179000A0EB0900022872D862486C30006880070C
:1017A000F4D510E00760FFF73BFD814606E000BF7F
:1017B000FFF736FDA0EB0900022860D859486C30CD
:1017C00000688007F4D42078400749D55548383060
:1017D000016841F080510160006800F08050009085
:1017E0005348016841F480710160FFF719FD81469B
:1017F00006E000BFFFF714FDA0EB090002283ED869
:101800004B480068C005F5D5DFF81891207A09F13A
:10181000680989F80000A06888B1FFF701FD009011
:1018200008E000BFFFF7FCFC0099411A41F2883044
:1018300081426CD8D9F800008007F3D510E0FFF79B
:10184000EFFC009008E000BFFFF7EAFC0099411AA6
:1018500041F2883081425AD8D9F800008007F3D489
:10186000A069E0B3D8F80010C1F38101022956D075
:101870000228376604D0FFF7D3FC04464AE046E06E
:10188000FFF7CEFC074604E0FFF7CAFCC01B0228A6
:101890003DD828688001F7D4D4E90701084347F60A
:1018A000C07292FAA2F2616AB2FA82F29140A26A1E
:1018B0004FF0FF3303EB52024FF4403393FAA3F39C
:1018C000B3FA83F39A40114308434FF0706292FADF
:1018D000A2F2E16AB2FA82F29140084300E01CE011
:1018E000CBF80000C6F860A0FFF79AFC044604E0BD
:1018F000FFF796FC001B022809D828688001F7D55D
:101900000BE000BFFFF78CFC001B022802D903206C
:10191000BDE8F88F28688001F4D40020F8E70120A2
:10192000F6E700000838024000004742800E4742B8
:10193000007000404FF0E0210428086903D020F037
:1019400004000861704740F00400FAE7704710B5E2
:10195000401EB0F1807F01D3012010BD4FF0E02484
:1019600060610F21601700F072FF0020A061072066
:101970002061002010BD10B5FFF7E8FF10BD10B5C5
:10198000040003D094F8390010B107E0012010BD25
:10199000002084F83800204600F00CF8022084F87B
:1019A0003900211D206801F003F8012084F8390076
:1019B000002010BD08B50C4A01680C48914207D1BF
:1019C000016841F080010160006800F0800009E0DA
:1019D000074A914207D1016841F4807101600068B3
:1019E00000F48070009008BD001C004040380240A8
:1019F0000020004030B50C4D03680021022409226C
:101A00000A4885B0AB4201D1831503E0084DAB42D3
:101A100008D15B150093CDE90141CDE90312694678
:101A2000FFF70EFB05B030BD001C00400014024063
:101A30000020004070B5044690F838000D4601289B
:101A40000DD0012684F83860022084F8390042B1B4
:101A5000042A18D0082A2AD00C2A4DD139E00220B5
:101A600070BD206801F010F82068816941F008011C
:101A700081612068816921F00401816120688169A8
:101A80002A69114311E0206801F02AF82068816971
:101A900041F4006181612068816921F48061816184
:101AA000206881692A6941EA0221816124E0206875
:101AB00001F048F82068C16941F00801C16120685F
:101AC000C16921F00401C1612068C1692A6911431B
:101AD00011E0206801F066F82068C16941F40061F6
:101AE000C1612068C16921F48061C1612068C16958
:101AF0002A6941EA0221C16184F83960002084F832
:101B0000380070BD10B5040003D094F8390010B14E
:101B100007E0012010BD002084F83800204600F0C6
:101B20000CF8022084F83900211D206800F040FFE5
:101B3000012084F83900002010BD704710B504461C
:101B40000068012200F094FF08492068884202D012
:101B50000749884203D1416C41F400414164206847
:101B6000016841F001010160002010BD000001404A
:101B70000004014010B504460068002200F078FF20
:101B8000114841F2111221689310814202D00F488E
:101B9000814209D1086A104206D1086A184203D16D
:101BA000486C20F4004048642068016A114206D164
:101BB000016A194203D1016821F00101016001208D
:101BC00084F83900002010BD0000014000040140ED
:101BD000704710F8391F40780843704770B50268A5
:101BE00004461068D168536910F00F0F51D003F00C
:101BF000010501F4907635435DD0C20705D0CA05D2
:101C000003D5E26B42F00102E263420705D5DA0731
:101C100003D0E26B42F00202E263820705D5DA07E5
:101C200003D0E26B42F00402E263020705D5DA0753
:101C300003D0E26B42F00802E263E26B002A34D088
:101C4000800604D5880602D5204600F0E9FF20680A
:101C50004069E16BC0F3801001F0080101432046A8
:101C600024D000F0CFFF2068416949061AD54169A8
:101C700021F040014161606BA0B11B490165606BBF
:101C8000FFF754F8002810D0606B016DBDE870407C
:101C9000084783060FD58B060DD52046BDE870405A
:101CA00000F0BEBF2046FFF793FF70BDFFF790FF27
:101CB0000020E06370BD030606D50B0604D5204660
:101CC000BDE8704001F048B94006F3D54806F1D5AB
:101CD000D168204621F04001D160202184F83910DC
:101CE00000F095F970BD0000F52B000870B50400F8
:101CF00004D094F83900002510B106E0012070BD31
:101D000084F83850204600F023F8242084F8390065
:101D10002068C16821F40051C160204600F0C6FF70
:101D20002068016921F4904101612068416921F036
:101D30002A0141612068C16841F40051C160E56336
:101D4000202084F8390084F83A00002070BD00009B
:101D500070B524490268022401250726224886B06E
:101D60008A420BD121490A6842F010020A600968D0
:101D700001F0100105914FF4C0610DE01B491C4BAF
:101D8000091F9A4212D10A6842F400320A600968B7
:101D900001F4003105910C218DE832004FEA0D016C
:101DA000CDE90346FFF74CF906B070BD11488242F9
:101DB000FAD1086840F4802008600868694600F499
:101DC0008020059010158DE83100CDE903460A48C2
:101DD000FFF736F94FF400708DE831006946074887
:101DE000DEE70000001001400000024044380240DD
:101DF000004400400048004000040240000C024043
:101E000090F83A30202B1DD1D1B1CAB190F83830BA
:101E1000012B17D081628285C2850021C1632222F5
:101E200080F83A2080F8381001684A6942F00102CF
:101E30004A610068C16841F49071C1600020704738
:101E4000012070470220704770B5304B02680121B5
:101E500000209A4219D12E4A2E4C13782E4A2A2B52
:101E60000AD0232B0BD0118801290AD12B492C4EE3
:101E70000C88C4F30D053EE011802080F6E7108049
:101E8000218070BD1080088070BD264B9A421FD102
:101E9000254A264D264B1478264AAA2C11D0552CBB
:101EA00013D019880129EFD11188234EC1F30D05F4
:101EB000491C89B274551180C729E5D91880108052
:101EC00070BD198028801080EEE71880298070BDD1
:101ED0001A4B9A42FBD11A4A1A4C13781A4A2A2BE7
:101EE00010D0232BCBD011880129F0D11749184EDF
:101EF0000C88C4F30D05641C7355A3B20B80C72B6B
:101F0000C0D870BD11802080F0E7000000100140B3
:101F10006C000020200000201E000020180000207F
:101F200084000020004400406D00002024000020B8
:101F3000220000201A000020140200200048004067
:101F40006E0000202A000020260000201C00002037
:101F5000DC0200202DE9F843044690F839001E46C3
:101F600017460D46202850D135B32FB394F83800CA
:101F700001284AD0012084F838004FF00008C4F846
:101F80003C80212084F83900FFF74AF9A784E784D0
:101F900081464FF48057E08C4B46401EE084A06899
:101FA0004FF00002B8424FF080012046009611D158
:101FB00001F003F800BB02E00120BDE8F8832888A7
:101FC000C0F3080120684160206908B16D1C08E079
:101FD000AD1C06E000F0F1FF70B9216815F8010BA7
:101FE0004860E08C0028D6D14B4600224021204694
:101FF000009600F0E2FF08B10320DEE7202084F81D
:10200000390084F838800020D7E70220D5E77047F0
:10201000FEE7000070B50D4C0025C4F8A0520C4836
:10202000016821F440210160016841F480210160D0
:10203000C4F8A452022004F5287401F021F901200B
:102040002060022001F01CF9256070BD0080434231
:10205000000402400E4810B5016886B041F002014C
:1020600001600068012400F0020005904FF4407008
:10207000CDE900040220CDE9024069460548FEF79B
:10208000DFFF0548C0F8A442C0F8A04206B010BD6A
:1020900030380240001C0240008043420E4810B518
:1020A000016886B041F0020101600068012400F07F
:1020B00002000590C020CDE900040220CDE90240D5
:1020C00069460648FEF7BCFF0548C0F89C42C0F8C8
:1020D000984206B010BD000030380240001C02409B
:1020E0000080434270B50D4C0025C4F8A0520C4846
:1020F000016821F440210160016841F48021016000
:102100000126C4F8A462022004F5287401F0B8F88E
:102110002660022001F0B4F8256070BD00804342C3
:10212000000402402DE9F04781461648002401686A
:1021300021F44021016001680160134E25462746C5
:102140004FF00108C6F8A072022001F099F8C6F815
:10215000A0826006040ED6F8240208B1641CE4B222
:10216000012001F08DF86D1CEDB2082DEAD3B9F114
:10217000000F04D0FFF74EFF2046BDE8F087FFF7C1
:10218000B1FFF9E700040240008043422DE9F0412D
:1021900006461448016821F440210160016841F4B9
:1021A00080210160104C0027C4F8A0723D464FF01A
:1021B0000108F009C4F8A4027006060E022001F01E
:1021C0005FF8C4F8A082022001F05AF8C4F8A072A7
:1021D000022001F055F86D1CEDB2082DE9D3BDE8E1
:1021E000F0810000000402400080434270B50D48B9
:1021F000016821F440210160016841F480210160FF
:10220000094C0120C4F8A402C4F8A002042004F57B
:10221000287401F035F800256560042001F030F8DD
:10222000256070BD00040240008043420E4810B596
:10223000016821F440210160016841F480210160BE
:102240000A4C0020C4F8A002C4F8A402042004F53B
:10225000287401F015F8012020606060BDE810408E
:10226000042001F00DB80000000402400080434249
:1022700070B512480024016821F440210160016812
:1022800001600F4D0126C5F8A462304600F0F8FF4A
:10229000C5F8A062012000F0F3FF07E0641CE4B27F
:1022A000FA2C03D9FFF7C2FF012070BDD5F8240234
:1022B0000028F3D1C5F8A00270BD00000004024060
:1022C000008043422DE9F0474FF400581D4E0C4664
:1022D00005460022474641463046FEF79CFF04F083
:1022E000F000000404F00F0100EB01342C43012244
:1022F00039463046FEF78FFF00254FF480494FF4F2
:102300000047002C01DA012200E000224946304655
:10231000FEF781FF012239463046FEF77CFF02209E
:1023200000F0A0FF002239463046FEF774FF64003B
:102330006D1C182DE5D341463046BDE8F04700221C
:10234000FEF769BF001C02407FB512481049002506
:1023500001604FF48031C0E9011505610562012477
:10236000C5628461C4610463C5604461FEF7F5FB26
:1023700008B1FEF737FA0A208DE8310069460548B2
:10238000FEF7A0FA002801D0FEF72CFA7FBD00006E
:102390000020014024040020054808B5016841F4EC
:1023A00080010160006800F48000009008BD00001A
:1023B00030380240F0B54C4887B00026016841F043
:1023C00020010160016801F020010591016841F0E0
:1023D00080010160016801F080010591016841F010
:1023E00001010160016801F001010591016841F0FE
:1023F00002010160016801F002010591016841F0EC
:1024000004010160016801F004010591016841F0D7
:1024100008010160016801F008010591016841F0BF
:1024200010010160016801F010010591016841F09F
:1024300040010160016801F040010591016841F42B
:10244000807101600068012400F480700590F02024
:10245000CDE90004254F032569463846CDE90245FC
:10246000FEF7EEFD7C20CDE9000669462048CDE967
:102470000245FEF7E5FD0C20CDE900061D4E69463C
:102480003046CDE90245FEF7DBFD4FF46040CDE973
:10249000000469461848CDE90245FEF7D1FD200247
:1024A000CDE9000469461548CDE90245FEF7C8FDAF
:1024B000012210213046FEF7AEFE012210213846DF
:1024C000FEF7A9FE012220213846FEF7A4FE0122D4
:1024D00040213846FEF79FFE012280213846FEF754
:1024E0009AFE07B0F0BD00003038024000080240FC
:1024F0000010024000180240001C02400020024070
:1025000010B5002201211220FEF7FEFE1220FEF778
:10251000EFFE002203212520FEF7F6FE2520FEF720
:10252000E7FE002204212620FEF7EEFE2620FEF71D
:10253000DFFE002205212720FEF7E6FE2720FEF71A
:10254000D7FE002202213820FEF7DEFEBDE8104053
:102550003820FEF7CDBE000010B5164888B01449EB
:10256000016059210024C0E9011413490988C0E918
:102570000314FFF704FA08B1FEF734F90D48FFF72A
:10258000C1FA08B1FEF72EF9602000901E20CDE9B7
:1025900001040022694607480494FFF74BFA08B18A
:1025A000FEF720F90348FFF725FA08B010BD000038
:1025B000001C0040740500207000002010B5164873
:1025C00088B01449016059210024C0E9011413495D
:1025D0000988C0E90314FFF7D2F908B1FEF702F940
:1025E0000D48FFF78FFA08B1FEF7FCF86020009065
:1025F0001E20CDE901040022694607480494FFF734
:1026000019FA08B1FEF7EEF80348FFF7F3F908B03E
:1026100010BD000000200040B00500207200002026
:102620000E4810B50C4901604FF4E13141600021C2
:1026300081600C22C160C0E904128161C161FFF7B1
:1026400055FB08B1FEF7CEF8BDE810400122044961
:102650000248FFF7D5BB000000100140A403002092
:102660006C0000200E4810B50C4901604FF4614128
:102670004160002181600C22C160C0E904128161C7
:10268000C161FFF733FB08B1FEF7ACF8BDE81040BD
:10269000012204490248FFF7B3BB00000044004098
:1026A000340500206D0000200E4810B50C49016073
:1026B0004FF4E1314160002181600C22C160C0E92A
:1026C00004128161C161FFF711FB08B1FEF78AF8BE
:1026D000BDE81040012204490248FFF791BB000009
:1026E00000480040E40300206E000020FEE70000E8
:1026F00010B51E4C207805280ED2DFE800F00D0D35
:102700000E03140000211A48FFF718FA0021194897
:10271000FFF714FA0220207010BDFEF765F8BDE83F
:102720001040FDF785BE00211148FFF723FA002174
:102730001048FFF71FFA00F033FD04210E48FEF7A2
:1027400065FD0128E8D14FF47A74234603220B4932
:102750000B48FFF7FFFB234602220A490848FFF710
:10276000F9FB09490720087010BD00006400002033
:1027700074050020B0050020001802402E00002043
:10278000E40300204B0000202800002010B5134C6B
:10279000207805280ED2DFE800F00D0D0E0314009E
:1027A00000210F48FFF7CAF900210E48FFF7C6F9CC
:1027B0000220207010BDFEF717F8BDE81040FDF7AD
:1027C000F3BE00210648FFF7D5F900210548FFF7C1
:1027D000D1F9BDE8104000F0E3BC00006400002027
:1027E00074050020B005002010B5144C2078052891
:1027F0000ED2DFE800F00D0D0E031400002110488A
:10280000FFF79CF900210F48FFF798F9022020708C
:1028100010BDFDF7E9FFBDE81040FDF7C5BE002182
:102820000748FFF7A7F900210648FFF7A3F900F0D2
:10283000B7FC05490720087010BD000064000020A7
:1028400074050020B005002028000020704709070B
:10285000090E002806DA00F00F0000F1E02080F8F1
:10286000141D704700F1E02080F800147047704795
:102870007047000010B54FF47A74234603220649CE
:102880000648FFF767FB2346BDE8104003220449D2
:102890000248FFF75FBB000045000020E403002072
:1028A0004D000020704710B5FEF7C0FCBDE8104099
:1028B000FFF761B830B5274893B00025016841F0B3
:1028C00080510160006800F080501190224801683A
:1028D00041F4404101600068022400F4404011903E
:1028E0000120009001908005CDE906400820089065
:1028F0004FF4B470CDE9090404200B906846FEF74C
:10290000A7FE00B1FEE7FEF731FD00B1FEE70CA91E
:102910000F2081E831004FF4A0500F904FF4805009
:10292000109005210CA8FEF767FD00B1FEE7FEF749
:1029300021FE4FF47A71B0FBF1F0FFF708F80420A4
:10294000FEF7F8FF00221146501EFEF7DDFC13B023
:1029500030BD00004038024000700040104801685F
:1029600041F4700101600F48016841F0010101600C
:102970000C4A00210832116002680B4B1A400260B9
:10298000031D0A4A1A60026822F480220260054888
:102990000C30016002495806803908607047000019
:1029A00088ED00E000380240FFFFF6FE1030002402
:1029B000F0B50268234B244D244E254F254C4FF093
:1029C000804C984209D0604507D0A84205D0B0425B
:1029D00003D0B84201D0A04204D122F0700E4A6860
:1029E00042EA0E0298421BD0604519D0A84217D087
:1029F000B04215D0B84213D0A04211D0164DA84213
:102A00000ED0164DA8420BD0154DA84208D0154D3A
:102A1000A84205D0144DA84202D0144DA84203D1BB
:102A200022F44075CA682A4302608A68C2620A6852
:102A30008262984201D0A04201D10969016301215B
:102A40004161F0BD0000014000040040000800406A
:102A5000000C0040000401400040014000440140DF
:102A60000048014000180040001C004000200040C9
:102A700010B50123046A8B409C430462036A8A40B8
:102A80001343036210BD000030B5026A22F0010258
:102A90000262026A436884690D6824F07304254366
:102AA00022F002048A6822430B4CA04202D00B4C55
:102AB000A0420BD122F00804CA6823F440732243D9
:102AC0004C6922F004021C438B69234343608561F7
:102AD00049684163026230BD0000014000040140CA
:102AE00030B5026A22F010020262026A4368846909
:102AF0000D6824F4E64444EA05248D6822F020029F
:102B000042EA05120D4DA84202D00D4DA8420ED149
:102B1000CD6822F0800242EA05124D6923F4406339
:102B200043EA85038D6922F0400243EA850343604E
:102B3000846149688163026230BD00000000014089
:102B40000004014030B5026A22F480720262036A16
:102B50004268C46923F4007324F073050C682C43A5
:102B60008D6843EA05230D4DA84202D00C4DA842C2
:102B70000ED1CD6823F4006343EA05234D6922F4A6
:102B8000405242EA05128D6923F4806342EA05123D
:102B90004260C4614968C163036230BD0000014006
:102BA0000004014030B5026A22F480520262046AD5
:102BB0004268C3690D6823F4E64343EA05238D6840
:102BC00024F4005444EA0534084DA84202D0084DCC
:102BD000A84204D14D6922F4804242EA8512426043
:102BE000C36149680164046230BD00000000014017
:102BF0000004014010B5806B0021C185C184FEF73F
:102C0000E7FF10BD0168CA6822F49072CA600168CB
:102C10004A6922F001024A61202180F83A10704787
:102C200010B590F83A10222901D0022010BD816819
:102C3000B1F5805F11D00169002901681FD0496892
:102C400001F07F03816A4A1C82620B70C18D491EAC
:102C50000904090CC18518D026E00269816A002A9E
:102C60000268526805D0D2B20A80816A491C81622A
:102C7000ECE7C2F308020A80816A891CF7E74A6818
:102C8000816A4B1C83620A70E0E70168CA6822F41B
:102C90009072CA6001684A6922F001024A612021EB
:102CA00080F83A10FFF7D0F8002010BD2DE9F04170
:102CB00004460068016921F44052E1681143016152
:102CC0002168C86849F20C6290432369A268E569EB
:102CD0001A4363692B431A430243CA602168486957
:102CE00020F44072A06910434861E1696425B1F5A0
:102CF000004F9748974A21684FF032083FD09142E1
:102D000001D081427CD1FEF753FC00EBC00101EB06
:102D1000001061688900B0FBF1F6FEF749FC00EB9A
:102D2000C00101EB001061688900B0FBF1F0B0FB5D
:102D3000F5F06FF01801484306EB800108EB011035
:102D4000B0FBF5F000F0F006FEF732FC00EBC0013E
:102D500001EB001061688900B0FBF1F0B0FBF5F009
:102D600006EB0016FEF724FC00EBC00101EB00109F
:102D700061688900B0FBF1F7FEF71AFCD2E09142DE
:102D800001D081423DD1FEF713FC00EBC00101EB05
:102D9000001061684900B0FBF1F0B0FBF5F00601EE
:102DA000FEF706FC00EBC00101EB00106168490072
:102DB000B0FBF1F7FEF7FCFB00EBC00101EB0010EC
:102DC00061684900B0FBF1F0B0FBF5F06FF018015D
:102DD000484307EB800108EBC100B0FBF5F000F0C1
:102DE000F80006EB4006FEF7E3FB00EBC00101EB49
:102DF000001061684900B0FBF1F7FEF7D9FB3CE039
:102E000055E0FEF7BDFB00EBC00101EB001061686F
:102E10004900B0FBF1F0B0FBF5F00601FEF7B0FBA6
:102E200000EBC00101EB001061684900B0FBF1F755
:102E3000FEF7A6FB00EBC00101EB00106168490042
:102E4000B0FBF1F0B0FBF5F06FF01801484307EB71
:102E5000800108EBC100B0FBF5F000F0F80006EBD4
:102E60004006FEF78DFB00EBC00101EB001061682E
:102E70004900B0FBF1F7FEF783FB00EBC00101EB6B
:102E8000001061684900B0FBF1F0B0FBF5F06FF0A5
:102E90001801484307EB800108EBC100B0FBF5F0D7
:102EA00000F00700216830448860BDE8F081FEF73B
:102EB00067FB00EBC00101EB001061688900B0FB0B
:102EC000F1F6FEF75DFB00EBC00101EB001061685D
:102ED0008900B0FBF1F0B0FBF5F06FF0180148434A
:102EE00006EB800108EB0110B0FBF5F000F0F006F6
:102EF000FEF746FB00EBC00101EB001061688900A2
:102F0000B0FBF1F0B0FBF5F006EB0016FEF738FB76
:102F100000EBC00101EB001061688900B0FBF1F724
:102F2000FEF72EFB00EBC00101EB00106168890089
:102F3000B0FBF1F0B0FBF5F06FF01801484307EB80
:102F4000800108EB0110B0FBF5F000F00F00A9E7DD
:102F5000001401400010014090F83910212901D0DF
:102F6000022070478168B1F5805F016A0BD04A1C6E
:102F70000262026809785160C18C491E0904090C7B
:102F8000C1840ED017E009880268C1F308015160BE
:102F900001690029016A02D0491C0162ECE7891C21
:102FA000FBE70168CA6822F08002CA600068C16855
:102FB00041F04001C160002070472DE9F041984682
:102FC00017460E460446069D1DE0681C1BD02DB119
:102FD000FEF726F9A0EB0800A84214D92068C168C2
:102FE00021F4D071C1602068416921F00101416183
:102FF000202084F8390084F83A00002084F8380052
:103000000320BDE8F0812068006836EA000004D0A3
:103010000020B842D9D00020F3E70120F9E70000F2
:1030200010B50848FEF7DAFD0648FEF7D2FD202865
:10303000FAD1012204490348FEF7E2FE0028F8D144
:1030400010BD0000A40300206C00002010B508484B
:10305000FEF7C4FD0648FEF7BCFD2028FAD1012288
:1030600004490348FEF7CCFE0028F8D110BD00004B
:10307000340500206D00002010B50848FEF7AEFDB5
:103080000648FEF7A6FD2028FAD10122044903488C
:10309000FEF7B6FE0028F8D110BD0000E4030020C2
:1030A0006E0000202DE9F0411A4E3088800000F0BB
:1030B00093F9194F194D002438606C6008E018200E
:1030C00000F08AF93A68696842F82100491C696091
:1030D000318868688842F2DB6C60114AA86811E0A8
:1030E000002004EB440100BFD7F800C000EB41030F
:1030F00013445CF824C0DB794CF82030401C0628CF
:10310000F2DB641C31888C42EADBC5E90140BDE892
:10311000F08100003200002068000020080000203C
:103120004C010020F0B5154D2888012824D1144EFB
:10313000144815493478047000230B80134A144F47
:1031400006E000BF17F800C002F800C0401C08806D
:103150000888A042F6D92B80338050799179303895
:1031600000EB80006FF02F0202EB40000844094999
:103170000880094903200870F0BD00002A000020E3
:103180001C0000206F000020080000204C010020DF
:10319000DC0200203200002028000020FEE70000B2
:1031A0002DE9F0411DA19820FDF7FBFA1D491E4CA9
:1031B0001E4E08684FF07A47C830086042F210711E
:1031C000B0FBF1F22270B0FBF1F201FB12014FF4FF
:1031D0007A72B1FBF2F1B0FBF2F302FB130364224B
:1031E000B3FBF2F361700A21A170E370B0FBF2F35C
:1031F00002FB1300B0FBF1F020710B206071002581
:10320000605D315C3846FFF75DF8032000F02AF876
:103210006D1C062DF4DBBDE8F0810000B5E7D1B9E7
:103220003A00000034000020740000203800002024
:1032300002E008C8121F08C1002AFAD1704770477F
:10324000002001E001C1121F002AFBD170470000DD
:1032500010B504460420FEF76DFB0148046010BD64
:103260000400002070B5054600244FF47A7603E090
:10327000304600F005F8641CAC42F9D370BD000084
:1032800070B54FF0E024002265690949A369096817
:103290004843A1699942FCD002D2A3EB010302E0AA
:1032A000A5EB010633441A440B468242F1D370BDAC
:1032B00004000020FDF7C2FFFFF7FCFAB420FFF77F
:1032C000C7FFFFF777F8FFF767F8FFF7A9F9FFF7F0
:1032D000C9F9FFF7E9F9FFF73FF9FFF76FF9FFF7D2
:1032E00033F8FEF7DBFEFEF7B5FEFFF709F93649C6
:1032F0006422A1F14800FDF79BFC08B1FDF772FACA
:10330000324D334C002620780928FCD2DFE800F04B
:10331000150605344F5258315500F4E7FDF75AFAB7
:10332000FFF7A8FA60880128EDD128796F28EAD143
:1033300068796B28E7D12670E5E760880128E2D13B
:103340002879662804D0622807D072280AD00EE0B7
:10335000687977280BD1042008E068796B2806D1BA
:10336000052003E068796B2801D106202070668073
:10337000C9E7FFF7D7FEC6E7FFF794FE042115481B
:10338000FDF744FF0128BED111490F484FF47A7769
:103390003B460322891DC838FEF7DCFD0C490A486C
:1033A0003B460222091DC838FEF7D4FDC3E7FFF7EC
:1033B0009FF9A8E7FFF7EAF9A5E7FFF773FAA2E795
:1033C000FFF712FA9FE700006C040020DC020020E7
:1033D0002800002000180240F0B50B30154D20F0F9
:1033E00007010024144A0FE003688B420BD38B4281
:1033F00005D95E1A43184768C3E9006700E04368CF
:10340000136002C004E0021D10680028ECD12046C1
:10341000002802D1286808B10020F0BD064A0748FC
:103420001060074A121A22F00702C0E900240120A6
:103430002860D7E7800000207C0000205406002090
:1034400050080020000610160006101600000000AC
:103450000102030401020304060708097C34000882
:103460000000002084000000303200080035000811
:1034700084000020CC0B0000403200080024F4003F
:10348000000000000000000000000000000000003C
:10349000000000000000000000000000000000002C
:1034A0000000000003000000737454534B00000040
:1034B00000000000303132333435363738392E765B
:1034C000004F424A4C4F436668303030AA09200012
:1034D00000000003000255AA021055AA021255016D
:1034E00003000000000000000000000000000000D9
:1034F00000000000000000000000000000000000CC
:04000005080001AD41
:00000001FF
